:030000000219687A
:1019680078FFE4F6D8FD9000007F007E04E4F0A341
:0A197800DFFCDEFA7581710219BD73
:101C15001224BA121A0212217F12176512258B128D
:101C250024291224D012237ED2AF1216AD122578A4
:101C35007F1E12248C122298301B47122314C21BBC
:101C4500AF6FAE6EAD6DAC6C9000CBE0F8A3E0F974
:101C5500A3E0FAA3E0FBC3120527601A9000CBE0CE
:101C6500FCA3E0FDA3E0FEA3E0F56F8E6E8D6D8C09
:101C75006CE4F570800C0570E570C3940A4003753B
:0A1C8500700A43BD1512239F80AEC4
:0100030022DA
:1021DF00E4FF75F002EFA4243FF582E5F03400F53B
:1021EF0083E0FCA3E0FD75F002EFA4245FF582E528
:0E21FF00F03400F583ECF0A3EDF00FBF02D436
:01220D0022AE
:101B9800000102030405060708090A0B0C0D0E0FC5
:101BA80010111213140000000000000001000000D2
:101BB800010000000000000000000000000000001C
:101BC800000000000000000000000000000000010C
:101BD800640000320820030203006402020000C807
:101BE80000C800C800C800C800C800C800C800C8AD
:101BF80000C800C800C800C800C800C800C800C89D
:0D1C080000C800C800C800C802150032FF67
:10144A004200550000420057000042004700644233
:09145A000043004642005D00144D
:0100040030CB
:10146300C11B4400CB00000000016200C19E02606A
:101473000000C11CC11D015F00015B00015C000194
:051483005D00015E00A8
:10226B00E4FFFE901C11E493FDEFC39D501EEF9015
:10227B001BAD93B40113EF901B9893FD74452EF592
:0C228B0082E43400F583EDF00E0F80D7E4
:012297002224
:10002600055F901C10E493FFE55FC39F4009D21E55
:10003600D21BD21CE4F55F7445255FF582E43400DB
:10004600F583E0FFD3940FE4500890FE7AF08FD545
:10005600800EF5D5EF24F0C454F0241090FE7AF00B
:0B00660000000000000000000000226D
:101598009000CF744EF0A37420F0901BD7E49370A2
:1015A800030216AC901BD97401937002E493600394
:1015B80002168BFF901C10E493FEEFC39E504875F3
:1015C800F002EFA4245FF582E5F03400F583E0FC37
:1015D800A3E0FDD39000D0E09D9000CFE09C402494
:1015E80075F002EFA4245FF582E5F03400F583E09E
:1015F800FCA3E0FDD394C8EC940040089000CFEC25
:10160800F0A3EDF00F80AD901C13E493FE740193EA
:10161800FF7C007D0A12039DAA06AB07EB7803C383
:1016280033CE33CED8F9FFC39000D0E09F9000CFDF
:10163800E09E40107C007D07AF03AE0212038BEEE4
:10164800F0A3EFF09000D0E0249CF09000CFE034BD
:10165800FFF0E0FEA3E0FF7C007D641203F27C0053
:101668007D6412038B9000CFEEF0A3EFF0C3946477
:10167800EE64809480402D9000CFE0F560A3E0F503
:1016880061800C901BD9E493F560740193F5615364
:10169800D4BFC21BC21E43D440301EFDC21B12253C
:0416A80082301BFD74
:0116AC00221B
:0A0E5D00901BD7E4937003021154B8
:100E6700E4F54FF55075F002E55EA4243FF582E501
:100E7700F03400F583E0F54FA3E0F550E55D60033E
:100E8700020F8A901BD893FFC3E5619FFFE560942B
:100E970000FEC3E5509FE54F9E506F7445255FF5F3
:100EA70082E43400F583E02440F582E434FEF583E0
:100EB700E4F07445255FF582E43400F583E020E033
:100EC70011C3132460F582E434FEF583E054F0FF88
:100ED700801B7445255FF582E43400F583E0C31376
:100EE7002460F582E434FEF583E0540FFF74452552
:100EF7005FF582E43400F583E0FEC3132460F582D6
:100F0700E434FEF583EFF0020026755B01755CFFA4
:100F17007445255FF582E43400F583E020E013C3D0
:100F2700132460F582E434FEF583E054F04401FFB6
:100F3700801D7445255FF582E43400F583E0C31313
:100F47002460F582E434FEF583E0540F4410FF7407
:100F570045255FF582E43400F583E0C3132460F58B
:100F670082E434FEF583EFF07445255FF582E434BF
:100F770000F583E02440F582E434FEF58374FFF046
:100F8700055D22E55D64016003021069901BD8933B
:100F97007E002561FFEE3560FED3E5509FE54F9E4D
:100FA700500302104E7445255FF582E43400F58343
:100FB700E020E00EC3132460F582E434FEF583E0FD
:100FC70080197445255FF582E43400F583E0C31387
:100FD7002460F582E434FEF583E0C4540FFF8F628A
:100FE700E562C39407506005627445255FF582E4A6
:100FF7003400F583E020E013C3132460F582E43462
:10100700FEF583E054F04562FF80227445255FF5C5
:1010170082E43400F583E0C3132460F582E434FEF0
:10102700F583E0540FFFE562C454F04FFF74452584
:101037005FF582E43400F583E0C3132460F582E4AE
:1010470034FEF583EFF022055D7445255FF582E4F4
:101057003400F583E02440F582E434FEF5837480A0
:10106700F022E55D6402600302113DC3E55C955B18
:10107700D39400500302113D901BD8E493F97E00EE
:101087002561FFEE3560FEC3E5509FE54F9E403C6E
:10109700E55CFD7C00255BFFE433A2E713EF13F566
:1010A7005BC3E55C955BD394014007E55B2DFFE4EB
:1010B700804D7445255FF582E43400F583E02440D4
:1010C700F582E434FEF583E55CF0806AE9FFC3E569
:1010D700619FFFE5609400FED3E5509FE54F9E506A
:1010E70055AD5B7C00ED255CFFEC33A2E713EF13F6
:1010F700F55CC3955BD394014024ED255CFFEC338D
:10110700A2E713EF13FF7445255FF582E43400F57A
:1011170083E02440F582E434FEF583EFF022744542
:10112700255FF582E43400F583E02440F582E4345A
:10113700FEF583E55BF0E4F55D120026055E901C85
:0D11470010E493FFE55EC39F4003E4F55EF6
:011154002278
:1016AD0090FE40E4F0A3F0A3F0A3F0A3F0A3F0A309
:1016BD00F0A3F0A3F0A3F0A3F0A3F0A3F0A3F0A385
:1016CD00F0A3F0A3F0A3F0A3F0A3F0A3F090FE60BD
:1016DD00F0A3F0A3F0A3F0A3F0A3F0A3F0A3F0A365
:1016ED00F0A3F0A3F0901BDB9390FE77F0901BDC42
:1016FD00E49390FE76F0901BDDE49390FE75F090F0
:10170D001BDEE49390FE74F043D480D2BD12226BA5
:10171D00901C10E493F55FD21C120026D21DC21B43
:10172D00122582754505E545600F301BF91221DF45
:10173D001545C21B12258280ED121598754505E5DC
:10174D0045600F301BF91221DF1545C21B12258292
:07175D0080ED1220ABC21D5C
:011764002262
:101F780053D4DFC3901C1374019395D6E49395D77B
:101F8800401775F002E55FA4243FF582E5F03400C0
:101F9800F583E5D7F0A3E5D6F0301E0512002680BC
:101FA80003120E5D301D03201B06201C0343D44082
:011FB8002206
:0A256E00D21CE5D420E6FBC21B22BC
:09258200301C05C21C43D44022A8
:10251000301C0FC21C900045E0B5D503D21B2243EE
:03252000D4402282
:1020AB00E4FF901C10E493FEEFC39E502B75F002DF
:1020BB00EFA4245FF582E5F03400F583E0FCA3E0A8
:1020CB00FD75F002EFA42459F582E5F03400F58399
:0820DB00ECF0A3EDF00F80CA48
:0120E30022DA
:1023140012256E1221DFE4F545901C10E493FFE5CD
:1023240045C39F5009AF45120A63054580EB12006F
:0423340003022582F9
:020A63008F46BC
:100A6500C222C22374452FF582E43400F583E0F9F0
:100A7500E47F01FEFDFCA8011205388F4E8E4D8DD9
:100A85004C8C4B75F002E9A424E6F582E5F0341BA5
:100A9500F583E493FE740193FF900043E0FCA3E02B
:100AA500FD120557E47B64FAF9F812047A8E478F34
:100AB5004874452546F582E43400F583E075F00277
:100AC500A424E6F582E5F0341BF583E493FE740176
:100AD50093FF90005DE0FCA3E0FD120557E47B6405
:100AE500FAF9F812047A8E498F4A75F002E546A4A0
:100AF5002459F582E5F03400F583E0FEA3E0FF75A7
:100B0500F002E546A4245FF582E5F03400F583E0C4
:100B1500FCA3E0C39FFFEC9EAB07FA74452546F5A1
:100B250082E43400F583E0901BC293B40102D22322
:100B3500901BE5E4936055FD7C00AE47AF4812037A
:100B45008BD3EB9FEE6480F8EA648098403E744D49
:100B55002546F582E43400F583E004F0743D25462E
:100B6500F582E43400F583E4F075F002E546A4244B
:100B750049F582E5F03400F583E4F0A3F0745325DC
:100B850046F582E43400F583E4F0D222C3EB9548C0
:100B9500E5476480F8EA6480985003020CD230235C
:100BA50041900055E0FEA3E0FF4E7003020C5A751C
:100BB500F002E546A4244FF582E5F03400F583E420
:100BC50075F00112042875F002E546A4244FF5825C
:100BD500E5F03400F583E0FCA3E0C39FEC9E40758F
:100BE500803C900057E0FEA3E0FF4E606875F00280
:100BF500E546A4244FF582E5F03400F583E475F06D
:100C05000112042875F002E546A4244FF582E5F0AB
:100C15003400F583E0FCA3E0C39FEC9E403775F0FC
:100C250002E546A42459F582E5F03400F583EA8B04
:100C3500F0120428743D2546F582E43400F583E47A
:100C4500F075F002E546A4244FF582E5F03400F591
:100C550083E4F0A3F0202255743D2546F582E43463
:100C650000F583E004F0743D2546F582E43400F593
:100C750083E0FF901BE3E493FEEFC39E402F9000BB
:100C8500CBE0FCA3E0FDA3E0FEA3E0454EFFEE456F
:100C95004DFEED454CFDEC454BFC9000CB12054B54
:100CA500743D2546F582E43400F583E4F075F002E1
:100CB500E546A42449F582E5F03400F583E4F0A384
:100CC500F074532546F582E43400020D83D3EB948A
:100CD50000EA648094805003020D8A900047E0FE8C
:100CE500A3E0FF4E605B75F002E546A42449F5825A
:100CF500E5F03400F583E475F00112042875F0027F
:100D0500E546A42449F582E5F03400F583E0FCA32B
:100D1500E0D39FEC9E402A75F002E546A42459F5E0
:100D250082E5F03400F583EA8BF012042875F002B1
:100D3500E546A42449F582E5F03400F583E4F0A303
:100D4500F0C3EB954AE5496480F8EA64809840036E
:100D5500020E0C744D2546F582E43400F583E0045B
:100D6500F075F002E546A4244FF582E5F03400F570
:100D750083E4F0A3F0743D2546F582E43400F58361
:100D8500E4F0020E0C901BE1E493FE740193FF4E18
:100D9500604674532546F582E43400F583E004F09B
:100DA50074532546F582E43400F583E0FDD3EF9DC9
:100DB500EE9400502374532546F582E43400F58300
:100DC500E4F075F002E546A42459F582E5F0340017
:100DD500F583EA8BF0120428744D2546F582E43438
:100DE50000F583E004F0743D2546F582E43400F512
:100DF50083E4F075F002E546A4244FF582E5F0346E
:100E050000F583E4F0A3F0744D2546F582E4340043
:100E1500F583E0FF901BE4E493FEEFC39E4038901A
:100E250000CBE0F8A3E0F9A3E0FAA3E0FBAF4EAEF8
:100E35004DAD4CAC4B12050CEB5FFFEA5EFEE95D78
:100E4500FDE85CFC9000CB12054B744D2546F58200
:070E5500E43400F583E4F032
:010E5C002273
:101A0200E4F58090FF0074C1F090FF01F090FF02B6
:101A12007401F090FF037441F090FF0474C1F090E0
:101A2200FF05F090FF06F090FF077401F0E4F590D7
:101A320090FF0874C1F090FF09F090FF0AF090FF48
:101A42000B7401F090FF0C7461F090FF0DF090FFA9
:101A52000EF090FF0F74C1F0E4F5A090FF1074C176
:101A6200F090FF11F090FF12F090FF137401F090CC
:101A7200FF1474C1F090FF15F090FF16F090FF175D
:0F1A8200F0E4F5B090FF1C74C1F090FF1DF0224E
:10237E0090FF027401F090FF037441F090FF13740C
:10238E0001F075B4807F1412255890FE9B744BF0AB
:01239E00221C
:03007300021FFA6F
:101FFA00C0E0C0F0C083C082C0D075D000C000C0AD
:10200A0001C002C003C004C005C006C007121F7881
:10201A00D007D006D005D004D003D002D001D0001A
:0B202A00D0D0D082D083D0F0D0E032C4
:03000B00020005EB
:0100050032C8
:03001B000220358B
:10203500C0E0C0F0C083C082C0D075D000C000C071
:1020450001C002C003C004C005C006C00712244277
:10205500D007D006D005D004D003D002D001D000DF
:0B206500D0D0D082D083D0F0D0E03289
:0300230002220EA8
:10220E00C0E0C083C082C0D0E59830E0195398FE7C
:10221E00756A0175630074762567F582E43400F5FE
:0F222E0083E599F00567D0D0D082D083D0E0321D
:1024BA00758E1190FE917401F090FEAA74FFF0904F
:0624CA00FEA474C2F02222
:0A148800C116C117C118C119C11A1D
:101E0C009000C6E0FF9000C9E0D39F40089000C747
:101E1C007402F0802BE49000C7F09000CAE0FEEF53
:101E2C00D39E401C9000C8E0D39400400AE014F00C
:101E3C00E49000C6F08009E49000CAF09000C9F06C
:0F1E4C009000C6E004F0D394FA400374FAF02239
:10248C009000C6E0D39F4002E4F09000C9EFF0E466
:07249C00A3F09000C8F0223C
:102410009000C6E0D39F4002E4F09000C9EDF0A325
:09242000EFF0EB149000C8F0226B
:10149200062C0000000000000632000000000000E0
:1014A200014400012500013800062688084828C8A2
:0E14B200A80B393F065B4F666D7D077F6F000C
:1018C600752FFF7530FF201F0FE4F52CF52DF52E33
:1018D600F52FF530752F022220060330080B301342
:1018E6003B7530A3752FA3803330050B30132D7550
:1018F60030FB752FFB802530040B30131F7530BF6E
:10190600752FBF8017300B0B3013117530F7752FFD
:10191600F780093013067530EF752FEFAE0AAF0B5F
:101926007C007D0A12039D8D25AE0AAF0B7C007DDF
:101936000A12039D7C007D0A12039D8D44AE0AAFF8
:101946000B7C007D6412039D8F3874392FF8E6F501
:101956002C74392544F8E6F52D74392525F8E6F575
:021966002E222F
:101D6500E52CB53215E52DB53310E52EB5340BE56B
:101D75002FB53506E5306536603C852C32852D332B
:101D8500852E34852F35853036C2AF7F08121EA9C2
:101D9500AF2C121EA9AF2D121EA9AF2E121EA9AF70
:101DA5002F121EA9E53054FDFF121EA97F05122131
:071DB5001B1224A3D2AF2290
:02211B008F46ED
:10211D00E4F547E547C39546502543BD157FA0120D
:10212D0025587FA01225587FA01225587FA0122573
:0F213D00587FA01225587FA0122558054780D43F
:01214C002270
:10217F00C2AF7F08121EA97FFF121EA97FFF121E7A
:10218F00A97FFF121EA97FFF121EA97FFD121EA994
:10219F007FFF121EA97F0312211B1224A3D2AF228D
:021EA9008F4662
:101EAB00E4F547F548C2B47F54122558E4F547E5ED
:101EBB004630E006D2B405488002C2B47F541225E6
:101ECB0058E546C313F5460547E547C3940840DF7D
:101EDB00E54820E004D2B48002C2B47F54122558E6
:071EEB00D2B47F5402255818
:1024A30074F0440A4401F5457F18121EA9AF451282
:0724B3001EA97F0302211B9B
:0A25780090FEA074FFF075BD132261
:1014C0004100B2004100B5004100A6004100AB0060
:0C14D0004100B6004100B7004100B4002C
:10254700C215C20FC212C214C210C211C20EC213E8
:012557002261
:10242900C28CC28D90FE80E04401F05389FC758C0A
:09243900FA758ACBD2A9D28C22DB
:1024D000E490FE80F0F589758DFF758B5A43A8084E
:0624E000438840D2AF2248
:0A255800E4FEEEC39F50030E80F86E
:012562002256
:0224E600AD0740
:1024E800E4FCECC39D500B7F6412255843BD150CCA
:0224F80080F072
:0124FA0022BF
:0100060022D7
:102442009000C7E06004B2A48002D2A49000B2E07F
:0924520004F09000B5E004F02252
:101D04009000B2E0C394084004E4F0D2159000B50A
:101D1400E0C39450404AE4F0D20F9000A6E004F0EF
:101D2400940A403CE4F0D2129000ABE004F0940535
:101D3400402EE4F0D214B2139000B6E004F0940202
:101D4400401EE4F0D210A3E004F0943C4012E4F00E
:101D5400D2119000B4E004F0943C4004E4F0D20EBC
:011D6400225C
:1014DC00500096000000000000000000000000001A
:1014EC00000000500086000000000000000000001A
:0614FC00000000000000EA
:101B1A009000A7E0FCA3E0FDEC900097F0900096FF
:101B2A00EDF09000A9E0FCA3E0FDEC900099F090A4
:101B3A000098EDF09000ACE0FCA3E0FDEC90009B77
:101B4A00F090009AEDF09000AEE0FCA3E0FDEC907E
:101B5A00009DF090009CEDF09000B0E0FCA3E0FD49
:101B6A00EC90009FF090009EEDF09000A0745AF067
:101B7A009000B3E09000A2F07F007E3C12235C7BD1
:0E1B8A00017A0079967D107F007E3C021EF2EB
:10235C00D310AF01C3C0D075FDF075FC0F8EFA8F92
:10236C00F975FDD275FC2D75FDE175FC1ED0D09272
:02237C00AF228E
:10233800D310AF01C3C0D08FFB75FDF075FC0F8CB7
:10234800FA8DF975FDB475FC4B75FDE175FC1ED071
:04235800D092AF224E
:101EF200D310AF01C3C0D08E498F4A8D4B8B4C8A11
:031F02004D894EB8
:101F0500E4FEEEC3954B5024AB4C054EE54EAA4D71
:101F15007002054D14F9120333FF054AE54AAC4931
:0C1F25007002054914FD1223380E80D60E
:051F3100D0D092AF22A8
:1020E4008E458F468B478A488949AF051DEF602688
:1020F4000546E546AE457002054514F5828E83E437
:1021040093FFAB470549E549AA487002054814F90D
:07211400EF12037980D422D1
:1017650090FE927410F07B017A007986FD7F007EF1
:101775003C1220E4900090E0645A602FE49000A7AA
:10178500F0A3F09000A9F0A3F09000ACF0A37403CF
:10179500F09000AEE4F0A37403F09000B0E4F0A381
:1017A5007403F0E49000B3F0021B1A900092E090ED
:1017B50000B3F0900087E0FE900086E0FDEDFF901D
:1017C50000A7EEF0A3EFF0900089E0FE900088E01E
:1017D500FDEDFF9000A9EEF0A3EFF090008BE0FE89
:1017E50090008AE0FDEDFF9000ACEEF0A3EFF090E5
:1017F500008DE0FE90008CE0FDEDFF9000AEEEF078
:10180500A3EFF090008FE0FE90008EE0FDEDFF90DD
:0818150000B0EEF0A3EFF02299
:1015020002180000021A000002110000021300007B
:0815120002080000020A0000BB
:10058400D282C2A5E4FB75B50243B440E5B430E5BC
:10059400FB53B4DFE5B62516F516E5B73515F515A5
:1005A4000BBB0AE2AE15AF167C007D6412039D8E70
:1005B4000C8F0DE4F515F516C282D2A5FB75B502B4
:1005C40043B440E5B430E5FB53B4DFE5B62516F596
:1005D40016E5B73515F5150BBB0AE2AE15AF167C5B
:1005E400007D6412039D8E0F8F10E4F515F516C27D
:1005F40082C2A5E50E25E02415F582E43400F583D6
:10060400E50CF0A3E50DF0050EE50ED3940A5003B6
:10061400020A62E4F50EFFE4FBC3740A9FFEEBC317
:100624009E506AEB25E02417F582E43400F583E05C
:10063400FCA3E0FDEB25E02415F582E43400F5830A
:10064400E0F8A3E0F5828883D39DE5839C403B8555
:100654008345858246EB25E02417F582E43400F5D2
:1006640083E0FCA3E0FDEB25E02415F582E43400EF
:10067400F583ECF0A3EDF0EB25E02417F582E434E8
:1006840000F583E545F0A3E546F00B808C0FEF649D
:100694000970847B02EB25E02415F582E43400F52F
:1006A40083E0FEA3E02548F548EE3547F5470BBB4C
:1006B40009E3E548AE477803CEC313CE13D8F9FD5A
:1006C400AC06E4120279E4FBFA79A0783F12016ED9
:1006D4001202B28E1A8F1BC3E51B941EE51A9400F6
:1006E4005009851A1A851B1B020A4CC3E51B942D5D
:1006F400E51A94005011AC1AAD1BE41202797B9AEE
:100704007A9979190207ABC3E51B943CE51A940066
:100714005011AC1AAD1BE41202797BCD7ACC794C22
:100724000207ABC3E51B944BE51A9400500FAC1AB7
:10073400AD1BE4120279E4FBFA7980806AC3E51BFD
:10074400945AE51A94005010AC1AAD1BE4120279C5
:100754007B9A7A997999804FC3E51B9469E51A9439
:10076400005010AC1AAD1BE41202797B337A337952
:10077400B38034C3E51B9478E51A94005010AC1A86
:10078400AD1BE41202797BCD7ACC79CC8019C3E518
:100794001B9487E51A94005013AC1AAD1BE41202A3
:1007A400797B667A6679E6783E0208ACC3E51B94E9
:1007B40096E51A94005011AC1AAD1BE4120279E4C8
:1007C400FBFAF9783F0208ACC3E51B94A5E51A943B
:1007D400005013AC1AAD1BE41202797BCD7ACC79AC
:1007E4000C783F0208ACC3E51B94B4E51A9400509E
:1007F40013AC1AAD1BE41202797B9A7A99791978B1
:100804003F0208ACC3E51B94C3E51A94005012AC34
:100814001AAD1BE41202797433FBFAF9783F02082B
:10082400ACC3E51B94D2E51A94005012AC1AAD1B6C
:10083400E41202797BCD7ACC794C783F806AC3E5A7
:100844001B94E1E51A94005012AC1AAD1BE4120299
:10085400797B9A7A997959783F804DC3E51B94F056
:10086400E51A94005011AC1AAD1BE41202797466B7
:10087400FBFAF9783F8031C3E51B94FAE51A94003A
:10088400500BAC1AAD1BE4120279020A13C3E51B28
:100894009404E51A94015016AC1AAD1BE4120279C3
:1008A4007BCD7ACC798C783F12016E020A13C3E5B2
:1008B4001B940EE51A94015016AC1AAD1BE41202F7
:1008C400797B9A7A997999783F12016E020A13C357
:1008D400E51B9418E51A94015016AC1AAD1BE412EA
:1008E40002797B667A6679A6783F12016E020A1352
:1008F400C3E51B941DE51A94015016AC1AAD1BE414
:100904001202797B337A3379B3783F12016E020A8B
:1009140013C3E51B9422E51A94015015AC1AAD1BC0
:10092400E4120279E4FBFA79C0783F12016E020AFC
:1009340013C3E51B9427E51A94015016AC1AAD1B9A
:10094400E41202797B337A3379D3783F12016E0251
:100954000A13C3E51B942CE51A94015016AC1AAD86
:100964001BE41202797B667A6679E6783F12016E9F
:10097400020A13C3E51B9431E51A94015015AC1A0D
:10098400AD1BE41202797B9A7A9979F9783F1201C6
:100994006E807CC3E51B9436E51A94015015AC1A9D
:1009A400AD1BE41202797BCD7ACC790C784012012C
:1009B4006E805CC3E51B943BE51A94015015AC1A98
:1009C400AD1BE41202797B667A66791678401201CF
:1009D4006E803CC3E51B9440E51A94015014AC1A94
:1009E400AD1BE4120279E4FBFA7920784012016E1F
:1009F400801DC3E51B9445E51A94015036AC1AAD2D
:100A04001BE41202797433FBFAF9784012016EC0C8
:100A140004C005C006C007AC1AAD1BE4120279D0AD
:100A240003D002D001D00012007D1202B28E1A8FC0
:100A34001B8015AE1AAF1B7C007D0312038BEF25C0
:100A44001BF51BEE351AF51AC3E51B94E7E51A945A
:0E0A5400034006751A03751BE7E4F547F548E5
:010A62002271
:1012DB00D2A3C2A1E4FB75B50B43B440E5B430E532
:1012EB00FB53B4DFE5B62516F516E5B73515F51541
:1012FB000BBB0AE2AE15AF167C007D6412039D8E0C
:10130B000C8F0DE4F515F516C2A3D2A1FB75B50B29
:10131B0043B440E5B430E5FB53B4DFE5B62516F531
:10132B0016E5B73515F5150BBB0AE2AE15AF167CF6
:10133B00007D0A12039D8E0F8F10E4F515F516C272
:10134B00A3C2A1E51725E02400F582E43400F58360
:10135B00E50CF0A3E50DF00517E517D3940A500340
:10136B00021449E4F517FFE4FBC3740A9FFEEBC3B9
:10137B009E506AEB25E02402F582E43400F583E00D
:10138B00FCA3E0FDEB25E02400F582E43400F583BB
:10139B00E0F8A3E0F5828883D39DE5839C403B85F1
:1013AB008345858246EB25E02402F582E43400F583
:1013BB0083E0FCA3E0FDEB25E02400F582E43400A0
:1013CB00F583ECF0A3EDF0EB25E02402F582E43499
:1013DB0000F583E545F0A3E546F00B808C0FEF6439
:1013EB000970847B02EB25E02400F582E43400F5E0
:1013FB0083E0FEA3E02548F548EE3547F5470BBBE8
:10140B000AE3E548AE477803CEC313CE13D8F9FDF4
:10141B00AC06E41202797BCD7ACC798C783F120141
:10142B006E1202B28E188F19C3E5199463E51894E6
:0E143B00004006751800751963E4F547F54882
:011449002280
:10151A00015100C10AC10DC1074100C0004100C309
:10152A00004100C4004100C100C181C10902570342
:10153A00E80252000002550000C18201540002591B
:02154A0000009F
:1023F600D20CE49000C2F0C20BC206C205C208D2DB
:0A24060004C203C2009000C5F022DA
:09258B001225471223F60224FB7D
:101C8F0020952074322558F558E43557F557C3E59C
:101C9F005894E8E557940340247557037558E8D2D4
:101CAF0001801AE55815587002155714D39401E5A1
:101CBF005794005008755700755801C20120941AA7
:101CCF000553E55370020552C39432E55294004018
:101CDF0023755200755332C20922E5531553700212
:101CEF00155214D39401E5529400500875520075A3
:051CFF005301D209228F
:1022C40020010F2005097B0A7D327F96122410D24B
:1022D4000522C205200908D20B20020CD20222C218
:0922E4000B300204C202D20722F1
:1021AF00200628200525200822201F02801D30042C
:1021BF00129000C2E0D394004005D203D20022C295
:1021CF00048008300B05D203C20022C203C20022D2
:10207000300C0B9000C2741EF0D204C20C22300A45
:102080000B9000C27414F0D204C20A22300D0E303C
:102090000B0B9000C2740AF0D204C20D2230070A62
:0B20A0009000C2740AF0D204C20722B4
:10252300300304D2918002C291300003D29222C2BE
:022533009222F2
:10223D00300B1D055AE55A70020559C39498E5599E
:10224D00943A401975593A755A981205840212DB61
:0E225D00C282C2A5C2A3C2A1E4F559F55A225D
:0C000E00301508C215121FB912223D2245
:1023BD00300F19C20F121E0CAF6FAE6EAD6DAC6C3F
:0D23CD00121155121C8F12214D1221AF224A
:1022ED00301223C2120551E551C39402400FE4F59B
:1022FD00511218C69000C7E07003121D65122523F8
:07230D001220701222C4220D
:101DBC0030144CC214E5192512F512E5183511F53D
:101DCC0011E51B2514F514E51A3513F5130554E527
:101DDC0054C3940A4029E4F554AE11AF12FC7D0AA9
:101DEC0012039D8E088F09AE13AF147C007D0A126E
:101DFC00039D8E0A8F0BE4F511F512F513F51422E1
:10181D002010030218C5C210121E5B9000C2E0D347
:10182D0094004005E014F08005E49000C2F09000B3
:10183D00C1E004F0C3940A406DE4F09000A8E09478
:10184D00689000A7E0940140069000C57401F0C3B4
:10185D009000AAE094689000A9E0940140069000E1
:10186D00C57402F0C39000ADE094D09000ACE0944C
:10187D000240069000C57403F0C39000AFE0946879
:10188D009000AEE0940140069000C57404F0900005
:10189D00C5E0601020170FD2177B0A7D327F96129C
:1018AD0024108002C21730200C0571E571C3940F0E
:0918BD004006C22022E4F571226C
:101A9100201103021B19C211300B789000C3E0041E
:101AA100F0C3940A4004E4F0D20D9000C4E004F0C5
:101AB100C39478400DE4F0D2067B057D327F961207
:101AC10024109000B3E004F0C3940A404BE4F0E02A
:101AD10004F09406403AE4F09000A8E004F07006A7
:101AE1009000A7E004F09000AAE004F070069000D6
:101AF100A9E004F09000ADE004F070069000ACE0C5
:101B010004F09000AFE004F070069000AEE004F045
:091B1100021B1AE49000C4F0224A
:10247400300E14C20E200B0F9000C0E004F0C39481
:08248400044004E4F0D20A2236
:10214D002083270556E55670020555C394F4E555D1
:10215D009401401D7555017556F4D208201612D202
:10216D00167B057D327F96022410E4F555F556C297
:02217D00162228
:10239F0043BD15121D0412245B12000E1223BD1231
:0E23AF0022ED121DBC12181D121A9102247488
:10154C004400B8000000004200BC00004200BE0095
:03155C0000C121AA
:1024FB00E4F56FF56EF56DF56CF570D21FF571C2E5
:05250B0020756B0122A8
:101155008F488E478D468C459000B8E0FCA3E0FD96
:10116500A3E0FEA3E0FFAB48AA47A946A845C312E2
:1011750005277003021209E570D394035003021288
:1011850009E47F80FEFDFC9000B8E0F8A3E0F9A338
:10119500E0FAA3E0FB120527701E20211BD22130A7
:1011A50020517F1412248C056BE56BC39405400315
:1011B500756B01E4F571803BE4FF7E08FDFC900052
:1011C500B8E0F8A3E0F9A3E0FAA3E0FBC312052712
:1011D500702120211E7F1412248CD221201F06D2BB
:1011E5001FD20C800E300409E49000C2F0C20480C6
:1011F50002D20CAF48AE47AD46AC459000B81205DB
:101205004BC22122E47F80FEFDFCAB48AA47A946DC
:10121500A845C312052770739000BC75F001120430
:1012250028FEC3E5F0942CEE94014066E49000BCE2
:10123500F0A3F020200E7F1412248CD221D2207529
:101245006B01804E7F1412248CD221E49000C5F0EE
:10125500E56BB40106E49000A7801FE56BB40206B8
:10126500E49000A98014E56BB40306E49000AC801B
:1012750009E56BB4040EE49000AEF0A3F09000B362
:10128500F0121B1AC220E4F56B8007E49000BCF055
:10129500A3F0E4FF7E08FDFCAB48AA47A946A84594
:1012A500C312052770289000BE75F001120428FEB0
:1012B500C3E5F0942CEE9401401BE49000BEF0A32E
:1012C500F0301F117F1412248CC21FD22122E4900A
:0612D50000BEF0A3F022B0
:10155F0050006355AA0000000000000000000000CA
:10156F0000000050007600000000000000000000A6
:10157F00000000000000016A0001630001670041E4
:08158F0000730042007400002B
:1022980090FF0E74C1F090FF0F7461F090FFA0746E
:1022A80016F090FFA104F075CC0675CEFF75CD9899
:0C22B800759E0275981043A810D2AF224A
:0B2563008F99E59830E1FB5398FD22B2
:0223DA00AE074C
:1023DC00E4FDEDC39E501274632DF582E43400F5D8
:0923EC0083E0FF1225630D80E976
:0123F50022C5
:10245B00E56AB40113E563B4030E7B017A00797668
:09246B00AD67121F36122535225F
:061F36008B458A46894735
:101F3C00E4FD7F02AB45AA46A9478F827583001248
:101F4C00034C2DFD0FBF0BECAB45AA46A947120362
:101F5C0033B4551590000112034CB4AA0C90000B2D
:0B1F6C0012034CB505037F01227F002B
:011F77002247
:102535007F32900076E4F0A3DFFCE4F56AF563F5FD
:01254500672E
:012546002272
:101E5B009000637455F0A374AAF0A220E433A3F0AE
:101E6B00A3E56BF0E4A3F0A3E509F0A21FE433A311
:101E7B00F09000C5E090006AF0E4A3F0A3F0A3F0AB
:101E8B00FF7E0274632EF582E43400F583E02FFFAE
:0E1E9B000EBE0BEF90006EEFF07F0C0223DA0C
:101FB900900073E0B40122900075E004F07006907F
:101FC9000074E004F0900074E07004A3E0646470AD
:101FD90008900073F0A3F0A3F0E56AB40112056359
:101FE900E563C3940640099000737401F0756306B4
:011FF90022C5
:1000760002031EE86480F8E933E83360110460F097
:10008600ED33EC337009E8FCE9FDEAFEEBFF2204F0
:1000960060DED3EB9FEA9EE99DE8C2E78CF0C2F7EB
:1000A60095F0400CE8CCF8E9CDF9EACEFAEBCFFBB7
:1000B6001202E985D0F05804700320D5B3E8047025
:1000C600075002B2D502032892D5EC0460F7E4CCBF
:1000D600C0E0C398F8603B94186008400DD0E0FB80
:1000E600020300E4FBFAC9FC8028E830E406E4C910
:1000F600FBE4CAFCE830E305E4C9CACBFCE85407D4
:100106006010F8C3E913F9EA13FAEB13FBEC13FCDE
:10011600D8F130F52FC3E49CFCEF9BFFEE9AFEED81
:1001260099FDD0E0FBEF4E4D4C701222DB0302032B
:1001360025EC2CFCEF33FFEE33FEED33FDED30E71F
:10014600EB020300EF2BFFEE3AFEED39FDD0E0FBAC
:1001560050130BBB0003020328ED13FDEE13FEEF55
:0801660013FFEC13FC0203007F
:10016E00EC4D6011E8497017ED33EC3304600DE48B
:10017E00FCFFFEFD22E933E8330470F802031E1281
:10018E0002E958046009E4CC248150062850090283
:10019E000328284003020325C0E0EB4A7044B980CF
:1001AE0006D0E0FB020314EF4E701CBD8008EBFF7F
:1001BE00EAFEE9FD80EBE98DF0A4FEE5F0020257C0
:1001CE00E9CDF9EAFEEBFFEF89F0A4FCE5F0CE896C
:1001DE00F0A42EFFE435F0CD89F0A42DFEE435F029
:1001EE008067EF4E7005BD80D780C3EF8BF0A4AC57
:1001FE00F0EE8BF0A42CFCE435F0F8EF8AF0A42C92
:10020E00E5F038FCE433CB8DF0A42CFCE5F03BF8A4
:10021E00EE8AF0A42CFCE5F038F8E433CF89F0A494
:10022E002CFCE5F038CF3400CE89F0A42FFFE5F09A
:10023E003EFEE433C98DF0A42EFEE5F039CD8AF0F2
:10024E00A42FFFE5F03EFEE43DFD33D0E0FB50076A
:10025E000BBB000F020328EC2CFCEF33FFEE33FE3A
:06026E00ED33FD02030068
:1002740075F020800E75F010800575F0087D007E05
:10028400007F003392D530D503120519EC334010AA
:10029400EF33FFEE33FEED33FDEC33FCD5F0ED220E
:0E02A400E5F0247EA2D513CC92E7CDCEFF224A
:1002B200EDD2E7CD33EC3392D524814006E4FFFE44
:1002C200FDFC22FCE4CFCECDCC24E0501174FF80A3
:1002D200EDC3CC13CCCD13CDCE13CECF13CF047040
:0702E200F030D5DE02051922
:1002E900E9D2E7C933E833F892D5EDD2E7CD33EC5B
:0702F90033FC5002B2D522D4
:10030000EC30E7100FBF000C0EBE00080DBD00045E
:100310000BEB6014A2D5EB13FCED92E7FD2274FF0A
:10032000FCFDFEFF22E480F8A2D574FF13FC7D8063
:03033000E480EF77
:10198200021C15E493A3F8E493A34003F68001F24A
:1019920008DFF48029E493A3F85407240CC8C33366
:1019A200C4540F4420C8834004F456800146F6DF35
:1019B200E4800B010204081020408090144AE47E67
:1019C200019360BCA3FF543F30E509541FFEE4932A
:1019D200A360010ECF54C025E060A840B8E493A3F1
:1019E200FAE493A3F8E493A3C8C582C8CAC583CA1C
:1019F200F0A3C8C582C8CAC583CADFE9DEE780BED4
:011597000053
:10033300BB010689828A83E0225002E722BBFE02C8
:09034300E32289828A83E49322FB
:10034C00BB010CE58229F582E5833AF583E0225066
:10035C0006E92582F8E622BBFE06E92582F8E222B0
:0D036C00E58229F582E5833AF583E49322CA
:10037900BB010689828A83F0225002F722BBFE0163
:02038900F3225D
:10038B00EF8DF0A4A8F0CF8CF0A428CE8DF0A42E86
:02039B00FE2240
:10039D00BC000BBE0029EF8DF084FFADF022E4CC44
:1003AD00F875F008EF2FFFEE33FEEC33FCEE9DEC0D
:1003BD00984005FCEE9DFE0FD5F0E9E4CEFD22ED53
:1003CD00F8F5F0EE8420D21CFEADF075F008EF2F9D
:1003DD00FFED33FD4007985006D5F0F222C398FD8E
:0503ED000FD5F0EA222B
:1003F200C2D5EC30E709B2D5E4C39DFDE49CFCEE26
:1004020030E715B2D5E4C39FFFE49EFE12039DC3FD
:10041200E49DFDE49CFC800312039D30D507C3E4F8
:060422009FFFE49EFE2294
:10042800C5F0F8A3E028F0C5F0F8E582158270025F
:060438001583E038F022FC
:10043E0075F008758200EF2FFFEE33FECD33CDCC75
:10044E0033CCC58233C5829BED9AEC99E5829840F8
:10045E000CF582EE9BFEED9AFDEC99FC0FD5F0D6D5
:10046E00E4CEFBE4CDFAE4CCF9A88222B800C1B9FF
:10047E000059BA002DEC8BF084CFCECDFCE5F0CB3D
:10048E00F97818EF2FFFEE33FEED33FDEC33FCEB76
:10049E0033FB10D703994004EB99FB0FD8E5E4F931
:1004AE00FA227818EF2FFFEE33FEED33FDEC33FC1E
:1004BE00C933C910D7059BE99A4007EC9BFCE99A12
:1004CE00F90FD8E0E4C9FAE4CCFB2275F010EF2F57
:1004DE00FFEE33FEED33FDCC33CCC833C810D70757
:1004EE009BEC9AE899400AED9BFDEC9AFCE899F892
:0E04FE000FD5F0DAE4CDFBE4CCFAE4C8F92225
:0D050C00CFF4CFCEF4CECDF4CDCCF4CC2284
:0E051900C3E49FFFE49EFEE49DFDE49CFC22F3
:10052700EB9FF5F0EA9E42F0E99D42F0E89C45F02A
:0105370022A1
:10053800E8600FEFC333FFEE33FEED33FDEC33FC21
:03054800D8F122C5
:0C054B00ECF0A3EDF0A3EEF0A3EFF02223
:10055700EC8EF0A4CCC5F0CCCDF8EFA4CEC5F02D31
:10056700FDE43CFCE8A42EC8C5F03DFDE43CFCEFEF
:0D057700A4FFE5F028FEE43DFDE43CFC227D
:00000001FF
