:03000000021D18C6
:101D180078FFE4F6D8FD9000007F007E04E4F0A38D
:0A1D2800DFFCDEFA75817E021D6DFE
:101FC500122961121DB21225FD121B15122A361295
:101FD50028D0122977122825D2AF121A5D122A238A
:101FE5007F1E122933122714301B471227BBC21B31
:101FF500AF79AE78AD77AC76900392E0F8A3E0F9CF
:10200500A3E0FAA3E0FBC3120527601A900392E050
:10201500FCA3E0FDA3E0FEA3E0F5798E788D778C37
:1020250076E4F57A800C057AE57AC3940A4003755F
:0A2035007A0A43BD1512284680AE5A
:0100060022D7
:10265D00E4FF75F002EFA42400F582E5F03403F5F4
:10266D0083E0FCA3E0FD75F002EFA42420F582E5E4
:0E267D00F03403F583ECF0A3EDF00FBF02D4B0
:01268B00222C
:101F4800000102030405060708090A0B0C0D0E0F11
:101F5800101112131400000000000000010000001E
:101F68000100000000000000000000000000000068
:101F78000000000000000000000000000000000158
:101F8800640000320820030203006402020000C853
:101F980000C800C800C800C800C800C800C800C8F9
:101FA80000C800C800C800C800C800C800C800C8E9
:0D1FB80000C800C800C800C802150032FFB4
:100E5D0042031600004203180000420308006442DA
:090E6D000304004642031E0014B8
:0100070030C8
:100E7600C11B44039200000000016C00C19E026A7F
:100E86000000C11CC11D0169000165000166000169
:050E9600670001680087
:1026BA00E4FFFE901FC1E493FDEFC39D501EEF900F
:1026CA001F5D93B40113EF901F4893FD74062EF516
:0C26DA0082E43403F583EDF00E0F80D78E
:0126E60022D1
:100026000569901FC0E493FFE569C39F4009D21E8E
:10003600D21BD21CE4F56974062569F582E4340303
:10004600F583E0FFD3940FE4500890FE7AF08FD545
:10005600800EF5D5EF24F0C454F0241090FE7AF00B
:0B00660000000000000000000000226D
:10194800900396744EF0A37420F0901F87E4937070
:1019580003021A5C901F897401937002E493600378
:10196800021A3BFF901FC0E493FEEFC39E504875D8
:10197800F002EFA42420F582E5F03403F583E0FCBF
:10198800A3E0FDD3900397E09D900396E09C40244C
:1019980075F002EFA42420F582E5F03403F583E026
:1019A800FCA3E0FDD394C8EC94004008900396ECA7
:1019B800F0A3EDF00F80AD901FC3E493FE74019384
:1019C800FF7C007D0A12039DAA06AB07EB7803C3D0
:1019D80033CE33CED8F9FFC3900397E09F90039698
:1019E800E09E40107C007D07AF03AE0212038BEE31
:1019F800F0A3EFF0900397E0249CF0900396E03476
:101A0800FFF0E0FEA3E0FF7C007D641203F27C009F
:101A18007D6412038B900396EEF0A3EFF0C39464F9
:101A2800EE64809480402D900396E0F56AA3E0F57B
:101A38006B800C901F89E493F56A740193F56B53DE
:101A4800D4BFC21BC21E43D440301EFDC21B122A83
:041A58002D301BFD15
:011A5C002267
:0A11C400901F87E49370030214BB30
:1011CE00E4F54FF55075F002E568A42400F582E5CC
:1011DE00F03403F583E0F54FA3E0F550E5676003C7
:1011EE000212F1901F8893FFC3E56B9FFFE56A948F
:1011FE0000FEC3E5509FE54F9E506F74062569F5BE
:10120E0082E43403F583E02440F582E434FEF58372
:10121E00E4F074062569F582E43403F583E020E0FA
:10122E0011C3132460F582E434FEF583E054F0FF1D
:10123E00801B74062569F582E43403F583E0C3133D
:10124E002460F582E434FEF583E0540FFF74062526
:10125E0069F582E43403F583E0FEC3132460F5825E
:10126E00E434FEF583EFF00200267565017566FF26
:10127E0074062569F582E43403F583E020E013C398
:10128E00132460F582E434FEF583E054F04401FF4C
:10129E00801D74062569F582E43403F583E0C313DB
:1012AE002460F582E434FEF583E0540F4410FF749D
:1012BE00062569F582E43403F583E0C3132460F553
:1012CE0082E434FEF583EFF074062569F582E4348A
:1012DE0003F583E02440F582E434FEF58374FFF0D9
:1012EE00056722E567640160030213D0901F88939F
:1012FE007E00256BFFEE356AFED3E5509FE54F9ECF
:10130E0050030213B574062569F582E43403F583A0
:10131E00E020E00EC3132460F582E434FEF583E092
:10132E00801974062569F582E43403F583E0C3134E
:10133E002460F582E434FEF583E0C4540FFF8F6C15
:10134E00E56CC394075060056C74062569F582E45C
:10135E003403F583E020E013C3132460F582E434F4
:10136E00FEF583E054F0456CFF802274062569F586
:10137E0082E43403F583E0C3132460F582E434FE83
:10138E00F583E0540FFFE56CC454F04FFF7406254F
:10139E0069F582E43403F583E0C3132460F582E437
:1013AE0034FEF583EFF022056774062569F582E4B5
:1013BE003403F583E02440F582E434FEF583748033
:1013CE00F022E567640260030214A4C3E566956526
:1013DE00D3940050030214A4901F88E493F97E0066
:1013EE00256BFFEE356AFEC3E5509FE54F9E403CF0
:1013FE00E566FD7C002565FFE433A2E713EF13F5E8
:10140E0065C3E5669565D394014007E5652DFFE458
:10141E00804D74062569F582E43403F583E024409B
:10142E00F582E434FEF583E566F0806AE9FFC3E5F4
:10143E006B9FFFE56A9400FED3E5509FE54F9E50EB
:10144E0055AD657C00ED2566FFEC33A2E713EF1377
:10145E00F566C39565D394014024ED2566FFEC3304
:10146E00A2E713EF13FF74062569F582E43403F542
:10147E0083E02440F582E434FEF583EFF022740617
:10148E002569F582E43403F583E02440F582E434E3
:10149E00FEF583E565F0E4F5671200260568901FFA
:0D14AE00C0E493FFE568C39F4003E4F568C8
:0114BB00220E
:101A5D0090FE40E4F0A3F0A3F0A3F0A3F0A3F0A355
:101A6D00F0A3F0A3F0A3F0A3F0A3F0A3F0A3F0A3D1
:101A7D00F0A3F0A3F0A3F0A3F0A3F0A3F090FE6009
:101A8D00F0A3F0A3F0A3F0A3F0A3F0A3F0A3F0A3B1
:101A9D00F0A3F0A3F0901F8B9390FE77F0901F8C26
:101AAD00E49390FE76F0901F8DE49390FE75F09088
:101ABD001F8EE49390FE74F043D480D2BD1226BAEB
:101ACD00901FC0E493F569D21C120026D21DC21BD3
:101ADD00122A2D754505E545600F301BF912265D5F
:101AED001545C21B122A2D80ED121948754505E5C5
:101AFD0045600F301BF912265D1545C21B122A2DAC
:071B0D0080ED1224F9C21D56
:011B140022AE
:10238C0053D4DFC3901FC374019395D6E49395D7B0
:10239C00401775F002E569A42400F582E5F03403DA
:1023AC00F583E5D7F0A3E5D6F0301E0512002680A4
:1023BC00031211C4301D03201B06201C0343D44000
:0123CC0022EE
:0A2A1900D21CE5D420E6FBC21B220C
:092A2D00301C05C21C43D44022F8
:1029B700301C0FC21C900306E0B5D503D21B22437F
:0329C700D44022D7
:1024F900E4FF901FC0E493FEEFC39E502B75F002DA
:10250900EFA42420F582E5F03403F583E0FCA3E091
:10251900FD75F002EFA4241AF582E5F03403F58382
:08252900ECF0A3EDF00F80CAF5
:012531002287
:1027BB00122A1912265DE4F545901FC0E493FFE53C
:1027CB0045C39F5009AF45120A63054580EB1200C4
:0427DB0006022A2D9B
:020A63008F46BC
:100A6500C224C22574062FF582E43403F583E0F928
:100A7500E47F01FEFDFCA8011205388F4E8E4D8DD9
:100A85004C8C4B75F002E9A42496F582E5F0341FF1
:100A9500F583E493FE740193FF900304E0FCA3E067
:100AA500FD120557E47B64FAF9F812047A8E478F34
:100AB5004874062546F582E43403F583E075F002B3
:100AC500A42496F582E5F0341FF583E493FE7401C2
:100AD50093FF90031EE0FCA3E0FD120557E47B6441
:100AE500FAF9F812047A8E498F4A75F002E546A4A0
:100AF500241AF582E5F03403F583E0FEA3E0FF75E3
:100B0500F002E546A42420F582E5F03403F583E000
:100B1500FCA3E0C39FFFEC9EAB07FA74062546F5E0
:100B250082E43403F583E0901F7293B40102D22569
:100B3500901F95E4936055FD7C00AE47AF481203C6
:100B45008BD3EB9FEE6480F8EA648098403E740E88
:100B55002546F582E43403F583E004F074FE25466A
:100B6500F582E43402F583E4F075F002E546A42449
:100B75000AF582E5F03403F583E4F0A3F074142557
:100B850046F582E43403F583E4F0D224C3EB9548BB
:100B9500E5476480F8EA6480985003020CD230255A
:100BA50041900316E0FEA3E0FF4E7003020C5A7558
:100BB500F002E546A42410F582E5F03403F583E45C
:100BC50075F00112042875F002E546A42410F5829B
:100BD500E5F03403F583E0FCA3E0C39FEC9E40758C
:100BE500803C900318E0FEA3E0FF4E606875F002BC
:100BF500E546A42410F582E5F03403F583E475F0A9
:100C05000112042875F002E546A42410F582E5F0EA
:100C15003403F583E0FCA3E0C39FEC9E403775F0F9
:100C250002E546A4241AF582E5F03403F583EA8B40
:100C3500F012042874FE2546F582E43402F583E4B7
:100C4500F075F002E546A42410F582E5F03403F5CD
:100C550083E4F0A3F020245574FE2546F582E434A0
:100C650002F583E004F074FE2546F582E43402F5CE
:100C750083E0FF901F93E493FEEFC39E402F900304
:100C850092E0FCA3E0FDA3E0FEA3E0454EFFEE45A8
:100C95004DFEED454CFDEC454BFC90039212054B8A
:100CA50074FE2546F582E43402F583E4F075F0021E
:100CB500E546A4240AF582E5F03403F583E4F0A3C0
:100CC500F074142546F582E43403020D83D3EB94C6
:100CD50000EA648094805003020D8A900308E0FEC8
:100CE500A3E0FF4E605B75F002E546A4240AF58299
:100CF500E5F03403F583E475F00112042875F0027C
:100D0500E546A4240AF582E5F03403F583E0FCA367
:100D1500E0D39FEC9E402A75F002E546A4241AF51F
:100D250082E5F03403F583EA8BF012042875F002AE
:100D3500E546A4240AF582E5F03403F583E4F0A33F
:100D4500F0C3EB954AE5496480F8EA64809840036E
:100D5500020E0C740E2546F582E43403F583E00497
:100D6500F075F002E546A42410F582E5F03403F5AC
:100D750083E4F0A3F074FE2546F582E43402F5839E
:100D8500E4F0020E0C901F91E493FE740193FF4E64
:100D9500604674142546F582E43403F583E004F0D7
:100DA50074142546F582E43403F583E0FDD3EF9D05
:100DB500EE9400502374142546F582E43403F5833C
:100DC500E4F075F002E546A4241AF582E5F0340353
:100DD500F583EA8BF0120428740E2546F582E43477
:100DE50003F583E004F074FE2546F582E43402F54C
:100DF50083E4F075F002E546A42410F582E5F034AD
:100E050003F583E4F0A3F0740E2546F582E434037C
:100E1500F583E0FF901F94E493FEEFC39E40389066
:100E25000392E0F8A3E0F9A3E0FAA3E0FBAF4EAE2E
:100E35004DAD4CAC4B12050CEB5FFFEA5EFEE95D78
:100E4500FDE85CFC90039212054B740E2546F58275
:070E5500E43403F583E4F02F
:010E5C002273
:101DB200E4F58090FF0074C1F090FF01F090FF0203
:101DC2007401F090FF037441F090FF0474C1F0902D
:101DD200FF05F090FF06F090FF077401F0E4F59024
:101DE20090FF0874C1F090FF09F090FF0AF090FF95
:101DF2000B7401F090FF0C7461F090FF0DF090FFF6
:101E02000EF090FF0F74C1F0E4F5A090FF1074C1C2
:101E1200F090FF11F090FF12F090FF137401F09018
:101E2200FF1474C1F090FF15F090FF16F090FF17A9
:0F1E3200F0E4F5B090FF1C74C1F090FF1DF0229A
:1028250090FF027401F090FF037441F090FF137460
:1028350001F075B4807F1412000E90FE9B744BF06E
:012845002270
:0300730002240E56
:10240E00C0E0C0F0C083C082C0D075D000C000C094
:10241E0001C002C003C004C005C006C00712238C51
:10242E00D007D006D005D004D003D002D001D00002
:0B243E00D0D0D082D083D0F0D0E032AC
:03000B00020008E8
:0100080032C5
:03001B0002244973
:10244900C0E0C0F0C083C082C0D075D000C000C059
:1024590001C002C003C004C005C006C0071228E9B4
:10246900D007D006D005D004D003D002D001D000C7
:0B247900D0D0D082D083D0F0D0E03271
:030023000225CDE6
:1025CD00C0E0C083C082C0D0E59830E01A5398FEB9
:1025DD00E564C394405010056474812564F582E46C
:1025ED003402F583E599F0D0D0D082D083D0E0329B
:10296100758E1190FE917401F090FEAA74FFF090A3
:06297100FEA474C2F02276
:0A0E9B00C116C117C118C119C11A10
:10221C0090038DE0FF900390E0D39F400890038ED5
:10222C007402F0802BE490038EF0900391E0FEEFAB
:10223C00D39E401C90038FE0D39400400AE014F02E
:10224C00E490038DF08009E4900391F0900390F0FA
:0F225C0090038DE004F0D394FA400374FAF0225B
:1029330090038DE0D39F4002E4F0900390EFF0E426
:07294300A3F090038FF022C6
:1028B70090038DE0D39F4002E4F0900390EDF0A3E6
:0928C700EFF0EB1490038FF022F6
:100EA500062C0000000000000632000000000000D3
:100EB500014400012500013800062688084828C895
:0E0EC500A80B393F065B4F666D7D077F6F00FF
:101C7600752FFF7530FF201F0FE4F52CF52DF52E7F
:101C8600F52FF530752F022220060330080B30138E
:101C96003B7530A3752FA3803330050B30132D759C
:101CA60030FB752FFB802530040B30131F7530BFBA
:101CB600752FBF8017300B0B3013117530F7752F4A
:101CC600F780093013067530EF752FEFAE0AAF0BAC
:101CD6007C007D0A12039D8D25AE0AAF0B7C007D2C
:101CE6000A12039D7C007D0A12039D8D44AE0AAF45
:101CF6000B7C007D6412039D8F3874392FF8E6F54E
:101D06002C74392544F8E6F52D74392525F8E6F5C1
:021D16002E227B
:10217500E52CB53215E52DB53310E52EB5340BE557
:102185002FB53506E5306536603C852C32852D3317
:10219500852E34852F35853036C2AF7F081222B99A
:1021A500AF2C1222B9AF2D1222B9AF2E1222B9AF20
:1021B5002F1222B9E53054FDFF1222B97F051225F1
:0721C5006912294AD2AF2282
:022569008F469B
:10256B00E4F547E547C39546502543BD157FA012BB
:10257B00000E7FA012000E7FA012000E7FA0120093
:0F258B000E7FA012000E7FA012000E054780D415
:01259A00221E
:1025FD00C2AF7F081222B97FFF1222B97FFF1222CC
:10260D00B97FFF1222B97FFF1222B97FFD1222B9C5
:10261D007FFF1222B97F0312256912294AD2AF22F8
:0222B9008F464E
:1022BB00E4F547F548C2B47F5412000EE4F547E548
:1022CB004630E006D2B405488002C2B47F541200F7
:1022DB000EE546C313F5460547E547C3940840DFB3
:1022EB00E54820E004D2B48002C2B47F5412000E41
:0722FB00D2B47F5402000E73
:10294A0074F0440A4401F5457F181222B9AF4512C2
:07295A0022B97F0302256989
:0A2A230090FEA074FFF075BD1322B1
:100ED30041037300410376004103670041036C0043
:0C0EE300410377004103780041037500D3
:1029EE00C215C20FC212C214C210C211C20EC2133D
:0129FE0022B6
:1028D000C28CC28D90FE80E04401F05389FC758C5F
:0928E000FA758ACBD2A9D28C2230
:10297700E490FE80F0F589758DFF758B5A43A808A2
:06298700438840D2AF229C
:0A000E00E4FEEEC39F50030E80F8DD
:0100180022C5
:02298D00AD0794
:10298F00E4FCECC39D500B7F6412000E43BD150C8D
:02299F0080F0C6
:0129A1002213
:0100090022D4
:1028E90090038EE06004B2A48002D2A4900373E046
:0928F90004F0900376E004F022E3
:1020B400900373E0C394084004E4F0D215900376CF
:1020C400E0C39450404AE4F0D20F900367E004F078
:1020D400940A403CE4F0D21290036CE004F09405BE
:1020E400402EE4F0D214B213900377E004F094028B
:1020F400401EE4F0D210A3E004F0943C4012E4F05B
:10210400D211900375E004F0943C4004E4F0D20E44
:0121140022A8
:100EEF005003570000000000000000000000000049
:100EFF000000005003470000000000000000000049
:060F0F00000000000000DC
:101ECA00900368E0FCA3E0FDEC900358F090035700
:101EDA00EDF090036AE0FCA3E0FDEC90035AF09069
:101EEA000359EDF090036DE0FCA3E0FDEC90035C78
:101EFA00F090035BEDF090036FE0FCA3E0FDEC9043
:101F0A00035EF090035DEDF0900371E0FCA3E0FD49
:101F1A00EC900360F090035FEDF0900361745AF067
:101F2A00900374E0900363F07F007E3C1228037BE9
:0E1F3A00017A0379577D107F007E3C02234818
:10280300D310AF01C3C0D075FDF075FC0F8EFA8FE6
:10281300F975FDD275FC2D75FDE175FC1ED0D092C6
:02282300AF22E2
:1027DF00D310AF01C3C0D08FFB75FDF075FC0F8C0C
:1027EF00FA8DF975FDB475FC4B75FDE175FC1ED0C6
:0427FF00D092AF22A3
:10234800D310AF01C3C0D08E498F4A8D4B8B4C8AB6
:032358004D894E5E
:10235B00E4FEEEC3954B5024AB4C054EE54EAA4D17
:10236B007002054D14F9120333FF054AE54AAC49D7
:0C237B007002054914FD1227DF0E80D609
:05238700D0D092AF224E
:102532008E458F468B478A488949AF051DEF602635
:102542000546E546AE457002054514F5828E83E4E4
:1025520093FFAB470549E549AA487002054814F9BB
:07256200EF12037980D4227F
:101B150090FE927410F07B017A037947FD7F007E79
:101B25003C122532900351E0645A602FE49003681B
:101B3500F0A3F090036AF0A3F090036DF0A3740393
:101B4500F090036FE4F0A37403F0900371E4F0A345
:101B55007403F0E4900374F0021ECA900353E090FE
:101B65000374F0900348E0FE900347E0FDEDFF901D
:101B75000368EEF0A3EFF090034AE0FE900349E01E
:101B8500FDEDFF90036AEEF0A3EFF090034CE0FE4D
:101B950090034BE0FDEDFF90036DEEF0A3EFF090A9
:101BA500034EE0FE90034DE0FDEDFF90036FEEF078
:101BB500A3EFF0900350E0FE90034FE0FDEDFF90A2
:081BC5000371EEF0A3EFF02222
:100F150002180000021A000002110000021300006E
:080F250002080000020A0000AE
:10058400D282C2A5E4FB75B50243B440E5B430E5BC
:10059400FB53B4DFE5B62516F516E5B73515F515A5
:1005A4000BBB0AE2AE15AF167C007D6412039D8E70
:1005B4000C8F0DE4F515F516C282D2A5FB75B502B4
:1005C40043B440E5B430E5FB53B4DFE5B62516F596
:1005D40016E5B73515F5150BBB0AE2AE15AF167C5B
:1005E400007D6412039D8E0F8F10E4F515F516C27D
:1005F40082C2A5E50E25E024D6F582E43402F58313
:10060400E50CF0A3E50DF0050EE50ED3940A5003B6
:10061400020A62E4F50EFFE4FBC3740A9FFEEBC317
:100624009E506AEB25E024D8F582E43402F583E099
:10063400FCA3E0FDEB25E024D6F582E43402F58347
:10064400E0F8A3E0F5828883D39DE5839C403B8555
:100654008345858246EB25E024D8F582E43402F50F
:1006640083E0FCA3E0FDEB25E024D6F582E434022C
:10067400F583ECF0A3EDF0EB25E024D8F582E43427
:1006840002F583E545F0A3E546F00B808C0FEF649B
:100694000970847B02EB25E024D6F582E43402F56C
:1006A40083E0FEA3E02548F548EE3547F5470BBB4C
:1006B40009E3E548AE477803CEC313CE13D8F9FD5A
:1006C400AC06E4120279E4FBFA79A0783F12016ED9
:1006D4001202B28E1A8F1BC3E51B941EE51A9400F6
:1006E4005009851A1A851B1B020A4CC3E51B942D5D
:1006F400E51A94005011AC1AAD1BE41202797B9AEE
:100704007A9979190207ABC3E51B943CE51A940066
:100714005011AC1AAD1BE41202797BCD7ACC794C22
:100724000207ABC3E51B944BE51A9400500FAC1AB7
:10073400AD1BE4120279E4FBFA7980806AC3E51BFD
:10074400945AE51A94005010AC1AAD1BE4120279C5
:100754007B9A7A997999804FC3E51B9469E51A9439
:10076400005010AC1AAD1BE41202797B337A337952
:10077400B38034C3E51B9478E51A94005010AC1A86
:10078400AD1BE41202797BCD7ACC79CC8019C3E518
:100794001B9487E51A94005013AC1AAD1BE41202A3
:1007A400797B667A6679E6783E0208ACC3E51B94E9
:1007B40096E51A94005011AC1AAD1BE4120279E4C8
:1007C400FBFAF9783F0208ACC3E51B94A5E51A943B
:1007D400005013AC1AAD1BE41202797BCD7ACC79AC
:1007E4000C783F0208ACC3E51B94B4E51A9400509E
:1007F40013AC1AAD1BE41202797B9A7A99791978B1
:100804003F0208ACC3E51B94C3E51A94005012AC34
:100814001AAD1BE41202797433FBFAF9783F02082B
:10082400ACC3E51B94D2E51A94005012AC1AAD1B6C
:10083400E41202797BCD7ACC794C783F806AC3E5A7
:100844001B94E1E51A94005012AC1AAD1BE4120299
:10085400797B9A7A997959783F804DC3E51B94F056
:10086400E51A94005011AC1AAD1BE41202797466B7
:10087400FBFAF9783F8031C3E51B94FAE51A94003A
:10088400500BAC1AAD1BE4120279020A13C3E51B28
:100894009404E51A94015016AC1AAD1BE4120279C3
:1008A4007BCD7ACC798C783F12016E020A13C3E5B2
:1008B4001B940EE51A94015016AC1AAD1BE41202F7
:1008C400797B9A7A997999783F12016E020A13C357
:1008D400E51B9418E51A94015016AC1AAD1BE412EA
:1008E40002797B667A6679A6783F12016E020A1352
:1008F400C3E51B941DE51A94015016AC1AAD1BE414
:100904001202797B337A3379B3783F12016E020A8B
:1009140013C3E51B9422E51A94015015AC1AAD1BC0
:10092400E4120279E4FBFA79C0783F12016E020AFC
:1009340013C3E51B9427E51A94015016AC1AAD1B9A
:10094400E41202797B337A3379D3783F12016E0251
:100954000A13C3E51B942CE51A94015016AC1AAD86
:100964001BE41202797B667A6679E6783F12016E9F
:10097400020A13C3E51B9431E51A94015015AC1A0D
:10098400AD1BE41202797B9A7A9979F9783F1201C6
:100994006E807CC3E51B9436E51A94015015AC1A9D
:1009A400AD1BE41202797BCD7ACC790C784012012C
:1009B4006E805CC3E51B943BE51A94015015AC1A98
:1009C400AD1BE41202797B667A66791678401201CF
:1009D4006E803CC3E51B9440E51A94015014AC1A94
:1009E400AD1BE4120279E4FBFA7920784012016E1F
:1009F400801DC3E51B9445E51A94015036AC1AAD2D
:100A04001BE41202797433FBFAF9784012016EC0C8
:100A140004C005C006C007AC1AAD1BE4120279D0AD
:100A240003D002D001D00012007D1202B28E1A8FC0
:100A34001B8015AE1AAF1B7C007D0312038BEF25C0
:100A44001BF51BEE351AF51AC3E51B94E7E51A945A
:0E0A5400034006751A03751BE7E4F547F548E5
:010A62002271
:1017D900D2A3C2A1E4FB75B50B43B440E5B430E52F
:1017E900FB53B4DFE5B62516F516E5B73515F5153E
:1017F9000BBB0AE2AE15AF167C007D6412039D8E09
:101809000C8F0DE4F515F516C2A3D2A1FB75B50B26
:1018190043B440E5B430E5FB53B4DFE5B62516F52E
:1018290016E5B73515F5150BBB0AE2AE15AF167CF3
:10183900007D0A12039D8E0F8F10E4F515F516C26F
:10184900A3C2A1E51725E024C1F582E43402F5839A
:10185900E50CF0A3E50DF00517E517D3940A50033D
:10186900021947E4F517FFE4FBC3740A9FFEEBC3B3
:101879009E506AEB25E024C3F582E43402F583E047
:10188900FCA3E0FDEB25E024C1F582E43402F583F5
:10189900E0F8A3E0F5828883D39DE5839C403B85EE
:1018A9008345858246EB25E024C3F582E43402F5BD
:1018B90083E0FCA3E0FDEB25E024C1F582E43402DA
:1018C900F583ECF0A3EDF0EB25E024C3F582E434D5
:1018D90002F583E545F0A3E546F00B808C0FEF6434
:1018E9000970847B02EB25E024C1F582E43402F51A
:1018F90083E0FEA3E02548F548EE3547F5470BBBE5
:101909000AE3E548AE477803CEC313CE13D8F9FDF1
:10191900AC06E41202797BCD7ACC798C783F12013E
:101929006E1202B28E188F19C3E5199463E51894E3
:0E193900004006751800751963E4F547F5487F
:01194700227D
:100F2D00015100C10AC10DC1074103810041038474
:100F3D00004103850041038200C181C109025703AD
:100F4D00E80252000002550000C18201540002590E
:020F5D00000092
:10289D00D20CE4900383F0C20BC206C205C208D26B
:0A28AD0004C203C200900386F0226B
:092A36001229EE12289D0229A2CA
:10203F0020952074322558F558E43557F557C3E5E8
:10204F005894E8E557940340247557037558E8D220
:10205F0001801AE55815587002155714D39401E5ED
:10206F005794005008755700755801C20120941AF3
:10207F000553E55370020552C39432E55294004064
:10208F0023755200755332C20922E553155370025E
:10209F00155214D39401E5529400500875520075EF
:0520AF005301D20922DB
:10276B0020010F2005097B0A7D327F961228B7D2F4
:10277B000522C205200908D20B20020CD20222C26C
:09278B000B300204C202D2072245
:10262D00200628200525200822201F02801D3004A9
:10263D0012900383E0D394004005D203D20022C24E
:10264D00048008300B05D203C20022C203C200224F
:10248400300C0B900383741EF0D204C20C22300A69
:102494000B9003837414F0D204C20A22300D0E3060
:1024A4000B0B900383740AF0D204C20D2230070A86
:0B24B400900383740AF0D204C20722D8
:1029CA00300304D2918002C291300003D29222C213
:0229DA00922247
:10268C00300B1D055AE55A70020559C39498E5594B
:10269C00943A401975593A755A981205840217D90B
:0E26AC00C282C2A5C2A3C2A1E4F559F55A220A
:0F29FF0030150BC2151223CD12274012268C2241
:10286400300F19C20F12221CAF79AE78AD77AC7657
:0D28740012165312203F12259B12262D2212
:10279400301223C2120551E551C39402400FE4F5EF
:1027A40051121C7690038EE070031221751229CA0F
:0727B40012248412276B229E
:1021CC0030144CC214E5192512F512E5183511F529
:1021DC0011E51B2514F514E51A3513F5130554E513
:1021EC0054C3940A4029E4F554AE11AF12FC7D0A95
:1021FC0012039D8E088F09AE13AF147C007D0A125A
:10220C00039D8E0A8F0BE4F511F512F513F51422CC
:101BCD00201003021C75C21012226B900383E0D308
:101BDD0094004005E014F08005E4900383F0900339
:101BED0082E004F0C3940A406DE4F0900369E09440
:101BFD0068900368E0940140069003867401F0C379
:101C0D0090036BE0946890036AE0940140069003A2
:101C1D00867402F0C390036EE094D090036DE0944F
:101C2D000240069003867403F0C3900370E094683D
:101C3D0090036FE0940140069003867404F09003C6
:101C4D0086E0601020170FD2177B0A7D327F961227
:101C5D0028B78002C21730200C057BE57BC3940F9B
:091C6D004006C22022E4F57B22AE
:101E4100201103021EC9C211300B78900384E004F3
:101E5100F0C3940A4004E4F0D20D900385E004F04D
:101E6100C39478400DE4F0D2067B057D327F961253
:101E710028B7900374E004F0C3940A404BE4F0E007
:101E810004F09406403AE4F0900369E004F070062F
:101E9100900368E004F090036BE004F07006900397
:101EA1006AE004F090036EE004F0700690036DE0C8
:101EB10004F0900370E004F0700690036FE004F00A
:091EC100021ECAE4900385F02220
:10291B00300E14C20E200B0F900381E004F0C39411
:08292B00044004E4F0D20A228A
:10259B002083270556E55670020555C394F4E5557F
:1025AB009401401D7555017556F4D208201612D2B0
:1025BB00167B057D327F960228B7E4F555F556C29A
:0225CB001622D6
:1028460043BD151220B41229021229FF1228641260
:0E28560027941221CC121BCD121E4102291B09
:100F5F004403790000000042037D000042037F003C
:030F6F0000C1219D
:1029A200E4F579F578F577F576F57AD21FF57BC2FD
:0529B2002075750122F3
:101653008F488E478D468C45900379E0FCA3E0FDCF
:10166300A3E0FEA3E0FFAB48AA47A946A845C312DF
:1016730005277003021707E57AD394035003021773
:1016830007E47F80FEFDFC900379E0F8A3E0F9A373
:10169300E0FAA3E0FB120527701E20211BD22130A4
:1016A30020517F141229330575E575C39405400352
:1016B300757501E4F57B803BE4FF7E08FDFC900338
:1016C30079E0F8A3E0F9A3E0FAA3E0FBC31205274E
:1016D300702120211E7F14122933D221201F06D20C
:1016E3001FD20C800E300409E4900383F0C20480FF
:1016F30002D20CAF48AE47AD46AC45900379120514
:101703004BC22122E47F80FEFDFCAB48AA47A946D9
:10171300A845C3120527707390037D75F001120469
:1017230028FEC3E5F0942CEE94014066E490037D1B
:10173300F0A3F020200E7F14122933D221D220757A
:101743007501804E7F14122933D221E4900386F071
:10175300E575B40106E4900368801FE575B40206DD
:10176300E490036A8014E575B40306E490036D8086
:1017730009E575B4040EE490036FF0A3F0900374CD
:10178300F0121ECAC220E4F5758007E490037DF0D1
:10179300A3F0E4FF7E08FDFCAB48AA47A946A84591
:1017A300C3120527702890037F75F001120428FEE9
:1017B300C3E5F0942CEE9401401BE490037FF0A367
:1017C300F0301F117F14122933C21FD22122E4905B
:0617D300037FF0A3F022E9
:100F720050032455AA0000000000000000000000F9
:100F820000000050033700000000000000000000D5
:100F9200000000000000017400016D0001710041B9
:080FA200033400420335000096
:1027140090FF0E74C1F090FF0F7461F090FFA074ED
:1027240016F090FFA104F075CC0675CEFF75CD9818
:0C273400759E0275981043A810D2AF22C9
:0B2A0E008F99E59830E1FB5398FD2202
:02288100AE07A0
:10288300E4FDEDC39E501274242DF582E43403F568
:0928930083E0FF122A0E0D80E91A
:01289C002219
:10290200E574B40113E56DB4030E7B017A037937E4
:09291200AD711221151229DC221D
:062115008B458A46894754
:10211B00E4FD7F02AB45AA46A9478F827583001267
:10212B00034C2DFD0FBF0BECAB45AA46A947120381
:10213B00336455703290000112034C64AA702890DE
:10214B00000B12034C6D701F90000212034C24FF06
:10215B00922090000312034CF57590000612034C6D
:09216B0024FF921F7F01227F0076
:012174002248
:1029DC007F32900337E4F0A3DFFCE4F574F56DF57A
:0129EC007179
:0129ED0022C7
:10226B009003247455F0A374AAF0A220E433A3F0D6
:10227B00A3E575F0E4A3F0A3E509F0A21FE433A3F3
:10228B00F0900386E090032BF0E4A3F0A3F0A3F00F
:10229B00FF7E0274242EF582E43403F583E02FFFD6
:0E22AB000EBE0BEF90032FEFF07F0C02288188
:1023CD00900334E0B40122900336E004F0700690DF
:1023DD000335E004F0900335E07004A3E06464700D
:1023ED0008900334F0A3F0A3F0E574B40112056D69
:1023FD00E56DC3940640099003347401F0756D06C4
:01240D0022AC
:100FAA00016400C122C123025D0000015B00015CF3
:010FBA000036
:03000300C2A22274
:0824BF008B1C8A1D891E8D1F74
:1024C700D2A27F0112298DE4FFEFC3951F5018ABED
:1024D7001CAA1DA91E8F8275830012034CF5993023
:1024E70099FDC2990F80E27F0112298DE4F564C23C
:0124F700A242
:0124F80022C1
:1026E700EDD395644002AD64E4FFEFC39D501874C9
:1026F700812FF582E43402F583E01203797401290E
:0C270700F9E43AFA0F80E3E4F564AF0552
:0127130022A3
:10274000E564D394004020E55B6564600785645BC5
:10275000E4F55C22E55CC39403500F055CE55CC3C3
:0A27600094054006D22222E4F55B46
:01276A00224C
:1014BC00202203021652C2227B017A027901AD640A
:1014CC001226E7900200EFF07A02790124FEFD1259
:1014DC002302900389EEF0A3EFF0900389E0FCA3C4
:1014EC00E0FDECA3F0FBEDA3F0900200E0FF24FF85
:1014FC00F582E43401F583E06B600302165274004C
:10150C002FF582E43402F583E0FF90038CE0FEEFCC
:10151C006E6003021652900202E024FA7003021568
:10152C00AC240360030215EC900203E0706BA3E0A3
:10153C00FFD394055063EF940440030215FCE09034
:10154C000387F0900206E0900388F025E0900203F8
:10155C00F09002007403F0900388E0FF14F0EF7039
:10156C00030215FC900200E0FF04F074012FF582D9
:10157C00E43402F583E4F0900387E0FF04F0745F39
:10158C002FF8E6FF900200E0FE04F074012EF582C5
:10159C00E43402F583EFF080BE9002027483803451
:1015AC00900203E07029A3E0FFD394055021EF943F
:1015BC00045013900387EFF0900206E0FF9003872E
:1015CC00E0245FF8A607900200E024FEF080219052
:1015DC0002027486F0A37402F090020004F08010F2
:1015EC009002027480F0A37401F09002007403F076
:1015FC007B017A027901900200E0FD122302900334
:10160C0089EEF0A3EFF0900389E0FCA3E0FDECFF82
:10161C00900200E0FE04F074012EF582E43402F531
:10162C0083EFF0AF05900200E0FE04F074012EF59C
:10163C0082E43402F583EFF07B017A0279019002A7
:06164C0000E0FD1224BFC6
:011652002275
:100FBB006100000000C1814001C0804101C080413F
:100FCB0000C1814001C0804100C1814000C181400E
:100FDB0001C0804101C0804100C1814000C18140FE
:100FEB0001C0804100C1814001C0804101C08041EE
:100FFB0000C1814001C0804100C1814000C18140DE
:10100B0001C0804100C1814001C0804101C08041CD
:10101B0000C1814000C1814001C0804101C08041BD
:10102B0000C1814001C0804100C1814000C18140AD
:10103B0001C0804101C0804100C1814000C181409D
:10104B0001C0804100C1814001C0804101C080418D
:10105B0000C1814000C1814001C0804101C080417D
:10106B0000C1814001C0804100C1814000C181406D
:10107B0001C0804100C1814001C0804101C080415D
:10108B0000C1814001C0804100C1814000C181404D
:10109B0001C0804101C0804100C1814000C181403D
:1010AB0001C0804100C1814001C0804101C080412D
:1010BB0000C181406100010000C0C101C30302C235
:1010CB00C60607C705C5C404CC0C0DCD0FCFCE0E7D
:1010DB000ACACB0BC90908C8D81819D91BDBDA1AED
:1010EB001EDEDF1FDD1D1CDC14D4D515D71716D65D
:1010FB00D21213D311D1D010F03031F133F3F232CD
:10110B0036F6F737F53534F43CFCFD3DFF3F3EFE3C
:10111B00FA3A3BFB39F9F83828E8E929EB2B2AEAAC
:10112B00EE2E2FEF2DEDEC2CE42425E527E7E6261C
:10113B0022E2E323E12120E0A06061A163A3A2628C
:10114B0066A6A767A56564A46CACAD6DAF6F6EAEFC
:10115B00AA6A6BAB69A9A86878B8B979BB7B7ABA6C
:10116B00BE7E7FBF7DBDBC7CB47475B577B7B676DC
:10117B0072B2B373B17170B050909151935352924C
:10118B0096565797559594549C5C5D9D5F9F9E5EBC
:10119B005A9A9B5B99595898884849894B8B8A4A2C
:1011AB004E8E8F4F8D4D4C8C44848545874746869C
:0811BB00824243834181804020
:062302008B7C8A7D897EC0
:102308007FFF7CFFAE051DEE602FAB7C057EE57E72
:10231800AA7D7002057D14F91203336FFB7A00243D
:1023280000F582E43400F583E06CFF74002BF5823D
:0F233800E43401F583E0FC80CBEFFEAD04EDFF54
:012347002273
:1000760002031EE86480F8E933E83360110460F097
:10008600ED33EC337009E8FCE9FDEAFEEBFF2204F0
:1000960060DED3EB9FEA9EE99DE8C2E78CF0C2F7EB
:1000A60095F0400CE8CCF8E9CDF9EACEFAEBCFFBB7
:1000B6001202E985D0F05804700320D5B3E8047025
:1000C600075002B2D502032892D5EC0460F7E4CCBF
:1000D600C0E0C398F8603B94186008400DD0E0FB80
:1000E600020300E4FBFAC9FC8028E830E406E4C910
:1000F600FBE4CAFCE830E305E4C9CACBFCE85407D4
:100106006010F8C3E913F9EA13FAEB13FBEC13FCDE
:10011600D8F130F52FC3E49CFCEF9BFFEE9AFEED81
:1001260099FDD0E0FBEF4E4D4C701222DB0302032B
:1001360025EC2CFCEF33FFEE33FEED33FDED30E71F
:10014600EB020300EF2BFFEE3AFEED39FDD0E0FBAC
:1001560050130BBB0003020328ED13FDEE13FEEF55
:0801660013FFEC13FC0203007F
:10016E00EC4D6011E8497017ED33EC3304600DE48B
:10017E00FCFFFEFD22E933E8330470F802031E1281
:10018E0002E958046009E4CC248150062850090283
:10019E000328284003020325C0E0EB4A7044B980CF
:1001AE0006D0E0FB020314EF4E701CBD8008EBFF7F
:1001BE00EAFEE9FD80EBE98DF0A4FEE5F0020257C0
:1001CE00E9CDF9EAFEEBFFEF89F0A4FCE5F0CE896C
:1001DE00F0A42EFFE435F0CD89F0A42DFEE435F029
:1001EE008067EF4E7005BD80D780C3EF8BF0A4AC57
:1001FE00F0EE8BF0A42CFCE435F0F8EF8AF0A42C92
:10020E00E5F038FCE433CB8DF0A42CFCE5F03BF8A4
:10021E00EE8AF0A42CFCE5F038F8E433CF89F0A494
:10022E002CFCE5F038CF3400CE89F0A42FFFE5F09A
:10023E003EFEE433C98DF0A42EFEE5F039CD8AF0F2
:10024E00A42FFFE5F03EFEE43DFD33D0E0FB50076A
:10025E000BBB000F020328EC2CFCEF33FFEE33FE3A
:06026E00ED33FD02030068
:1002740075F020800E75F010800575F0087D007E05
:10028400007F003392D530D503120519EC334010AA
:10029400EF33FFEE33FEED33FDEC33FCD5F0ED220E
:0E02A400E5F0247EA2D513CC92E7CDCEFF224A
:1002B200EDD2E7CD33EC3392D524814006E4FFFE44
:1002C200FDFC22FCE4CFCECDCC24E0501174FF80A3
:1002D200EDC3CC13CCCD13CDCE13CECF13CF047040
:0702E200F030D5DE02051922
:1002E900E9D2E7C933E833F892D5EDD2E7CD33EC5B
:0702F90033FC5002B2D522D4
:10030000EC30E7100FBF000C0EBE00080DBD00045E
:100310000BEB6014A2D5EB13FCED92E7FD2274FF0A
:10032000FCFDFEFF22E480F8A2D574FF13FC7D8063
:03033000E480EF77
:101D3200021FC5E493A3F8E493A34003F68001F2E3
:101D420008DFF48029E493A3F85407240CC8C333B2
:101D5200C4540F4420C8834004F456800146F6DF81
:101D6200E4800B0102040810204080900E5DE47EA6
:101D7200019360BCA3FF543F30E509541FFEE49376
:101D8200A360010ECF54C025E060A840B8E493A33D
:101D9200FAE493A3F8E493A3C8C582C8CAC583CA68
:101DA200F0A3C8C582C8CAC583CADFE9DEE780BE20
:0111C300002B
:10033300BB010689828A83E0225002E722BBFE02C8
:09034300E32289828A83E49322FB
:10034C00BB010CE58229F582E5833AF583E0225066
:10035C0006E92582F8E622BBFE06E92582F8E222B0
:0D036C00E58229F582E5833AF583E49322CA
:10037900BB010689828A83F0225002F722BBFE0163
:02038900F3225D
:10038B00EF8DF0A4A8F0CF8CF0A428CE8DF0A42E86
:02039B00FE2240
:10039D00BC000BBE0029EF8DF084FFADF022E4CC44
:1003AD00F875F008EF2FFFEE33FEEC33FCEE9DEC0D
:1003BD00984005FCEE9DFE0FD5F0E9E4CEFD22ED53
:1003CD00F8F5F0EE8420D21CFEADF075F008EF2F9D
:1003DD00FFED33FD4007985006D5F0F222C398FD8E
:0503ED000FD5F0EA222B
:1003F200C2D5EC30E709B2D5E4C39DFDE49CFCEE26
:1004020030E715B2D5E4C39FFFE49EFE12039DC3FD
:10041200E49DFDE49CFC800312039D30D507C3E4F8
:060422009FFFE49EFE2294
:10042800C5F0F8A3E028F0C5F0F8E582158270025F
:060438001583E038F022FC
:10043E0075F008758200EF2FFFEE33FECD33CDCC75
:10044E0033CCC58233C5829BED9AEC99E5829840F8
:10045E000CF582EE9BFEED9AFDEC99FC0FD5F0D6D5
:10046E00E4CEFBE4CDFAE4CCF9A88222B800C1B9FF
:10047E000059BA002DEC8BF084CFCECDFCE5F0CB3D
:10048E00F97818EF2FFFEE33FEED33FDEC33FCEB76
:10049E0033FB10D703994004EB99FB0FD8E5E4F931
:1004AE00FA227818EF2FFFEE33FEED33FDEC33FC1E
:1004BE00C933C910D7059BE99A4007EC9BFCE99A12
:1004CE00F90FD8E0E4C9FAE4CCFB2275F010EF2F57
:1004DE00FFEE33FEED33FDCC33CCC833C810D70757
:1004EE009BEC9AE899400AED9BFDEC9AFCE899F892
:0E04FE000FD5F0DAE4CDFBE4CCFAE4C8F92225
:0D050C00CFF4CFCEF4CECDF4CDCCF4CC2284
:0E051900C3E49FFFE49EFEE49DFDE49CFC22F3
:10052700EB9FF5F0EA9E42F0E99D42F0E89C45F02A
:0105370022A1
:10053800E8600FEFC333FFEE33FEED33FDEC33FC21
:03054800D8F122C5
:0C054B00ECF0A3EDF0A3EEF0A3EFF02223
:10055700EC8EF0A4CCC5F0CCCDF8EFA4CEC5F02D31
:10056700FDE43CFCE8A42EC8C5F03DFDE43CFCEFEF
:0D057700A4FFE5F028FEE43DFDE43CFC227D
:00000001FF
