:030000000219469C
:1019460078FFE4F6D8FD9000007F007E04E4F0A363
:0A195600DFFCDEFA75817802199BB0
:101BE9001223B1121A691220C612174C12249C1220
:101BF90023C71223DD122298D2AF12169412248918
:101C09007F1E1223831221B1301B4712222EC21BC1
:101C1900AF65AE64AD63AC6290014AE0F8A3E0F948
:101C2900A3E0FAA3E0FBC3120527601A90014AE07A
:101C3900FCA3E0FDA3E0FEA3E0F5658E648D638C53
:101C490062E4F566800C0566E566C3940A4003758F
:0A1C5900660A43BD151222D380AEC7
:0100090022D4
:10212600E4FF75F002EFA424E1F582E5F03400F552
:1021360083E0FCA3E0FD75F002EFA42401F582E53F
:0E214600F03401F583ECF0A3EDF00FBF02D4EE
:012154002268
:101B6C00000102030405060708090A0B0C0D0E0FF1
:101B7C0010111213140000000000000001000000FE
:101B8C000100000000000000000000000000000048
:101B9C000000000000000000000000000000000138
:101BAC00640000320820030203006402020000C833
:101BBC0000C800C800C800C800C800C800C800C8D9
:101BCC0000C800C800C800C800C800C800C800C8C9
:0D1BDC0000C800C800C800C802150032FF94
:101155004200F700004200F900004200E900644245
:0911650000E500464200FF001401
:01000A0030C5
:10116E00C11B44014A00000000015800C19E0256F6
:10117E000000C11CC11D01550001510001520001AA
:05118E005300015400B4
:10218400E4FFFE901BE5E493FDEFC39D501EEF902A
:102194001B8193B40113EF901B6C93FD74E72EF530
:0C21A40082E43400F583EDF00E0F80D7CC
:0121B000220C
:100026000555901BE4E493FFE555C39F4009D21E96
:10003600D21BD21CE4F55574E72555F582E434004D
:10004600F583E0FFD3940FE4500890FE7AF08FD545
:10005600800EF5D5EF24F0C454F0241090FE7AF00B
:0B00660000000000000000000000226D
:10157F0090014E744EF0A37420F0901BABE4937067
:10158F0003021693901BAD7401937002E4936003F2
:10159F00021672FF901BE4E493FEEFC39E50487552
:1015AF00F002EFA42401F582E5F03401F583E0FCAD
:1015BF00A3E0FDD390014FE09D90014EE09C4024AD
:1015CF0075F002EFA42401F582E5F03401F583E014
:1015DF00FCA3E0FDD394C8EC9400400890014EECBE
:1015EF00F0A3EDF00F80AD901BE7E493FE74019331
:1015FF00FF7C007D0A12039DAA06AB07EB7803C39D
:10160F0033CE33CED8F9FFC390014FE09F90014EF8
:10161F00E09E40107C007D07AF03AE0212038BEEFD
:10162F00F0A3EFF090014FE0249CF090014EE034D6
:10163F00FFF0E0FEA3E0FF7C007D641203F27C006C
:10164F007D6412038B90014EEEF0A3EFF0C3946410
:10165F00EE64809480402D90014EE0F556A3E0F5A6
:10166F0057800C901BADE493F556740193F55753C7
:10167F00D4BFC21BC21E43D440301EFDC21B122456
:04168F0093301BFD7C
:011693002234
:0A0E5D00901BABE4937003021154E4
:100E6700E4F54FF55075F002E554A424E1F582E569
:100E7700F03400F583E0F54FA3E0F550E553600348
:100E8700020F8A901BAC93FFC3E5579FFFE556946B
:100E970000FEC3E5509FE54F9E506F74E72555F55B
:100EA70082E43400F583E02440F582E434FEF583E0
:100EB700E4F074E72555F582E43400F583E020E09B
:100EC70011C3132460F582E434FEF583E054F0FF88
:100ED700801B74E72555F582E43400F583E0C313DE
:100EE7002460F582E434FEF583E0540FFF74E725B0
:100EF70055F582E43400F583E0FEC3132460F582E0
:100F0700E434FEF583EFF00200267551017552FFB8
:100F170074E72555F582E43400F583E020E013C338
:100F2700132460F582E434FEF583E054F04401FFB6
:100F3700801D74E72555F582E43400F583E0C3137B
:100F47002460F582E434FEF583E0540F4410FF7407
:100F5700E72555F582E43400F583E0C3132460F5F3
:100F670082E434FEF583EFF074E72555F582E43427
:100F770000F583E02440F582E434FEF58374FFF046
:100F8700055322E55364016003021069901BAC937B
:100F97007E002557FFEE3556FED3E5509FE54F9E61
:100FA700500302104E74E72555F582E43400F583AB
:100FB700E020E00EC3132460F582E434FEF583E0FD
:100FC700801974E72555F582E43400F583E0C313EF
:100FD7002460F582E434FEF583E0C4540FFF8F5894
:100FE700E558C394075060055874E72555F582E422
:100FF7003400F583E020E013C3132460F582E43462
:10100700FEF583E054F04558FF802274E72555F537
:1010170082E43400F583E0C3132460F582E434FEF0
:10102700F583E0540FFFE558C454F04FFF74E725EC
:1010370055F582E43400F583E0C3132460F582E4B8
:1010470034FEF583EFF022055374E72555F582E466
:101057003400F583E02440F582E434FEF5837480A0
:10106700F022E5536402600302113DC3E552955136
:10107700D39400500302113D901BACE493F97E001A
:101087002557FFEE3556FEC3E5509FE54F9E403C82
:10109700E552FD7C002551FFE433A2E713EF13F57A
:1010A70051C3E5529551D394014007E5512DFFE413
:1010B700804D74E72555F582E43400F583E024403C
:1010C700F582E434FEF583E552F0806AE9FFC3E573
:1010D700579FFFE5569400FED3E5509FE54F9E507E
:1010E70055AD517C00ED2552FFEC33A2E713EF130A
:1010F700F552C39551D394014024ED2552FFEC33AB
:10110700A2E713EF13FF74E72555F582E43400F5E2
:1011170083E02440F582E434FEF583EFF02274E7A0
:101127002555F582E43400F583E02440F582E43464
:10113700FEF583E551F0E4F5531200260554901BA4
:0D114700E4E493FFE554C39F4003E4F55436
:011154002278
:1016940090FE40E4F0A3F0A3F0A3F0A3F0A3F0A322
:1016A400F0A3F0A3F0A3F0A3F0A3F0A3F0A3F0A39E
:1016B400F0A3F0A3F0A3F0A3F0A3F0A3F090FE60D6
:1016C400F0A3F0A3F0A3F0A3F0A3F0A3F0A3F0A37E
:1016D400F0A3F0A3F0901BAF9390FE77F0901BB0B3
:1016E400E49390FE76F0901BB1E49390FE75F09035
:1016F4001BB2E49390FE74F043D480D2BD122184D3
:10170400901BE4E493F555D21C120026D21DC21B93
:10171400122493754505E545600F301BF912212607
:101724001545C21B12249380ED12157F754505E5FE
:1017340045600F301BF91221261545C21B12249354
:0717440080ED122024C21DFC
:01174B00227B
:101F320053D4DFC3901BE774019395D6E49395D7EE
:101F4200401775F002E555A424E1F582E5F034006E
:101F5200F583E5D7F0A3E5D6F0301E051200268002
:101F620003120E5D301D03201B06201C0343D440C8
:011F7200224C
:0A247F00D21CE5D420E6FBC21B22AC
:09249300301C05C21C43D4402298
:10241D00301C0FC21C9000E7E0B5D503D21B224340
:03242D00D4402276
:10202400E4FF901BE4E493FEEFC39E502B75F00293
:10203400EFA42401F582E5F03401F583E0FCA3E08C
:10204400FD75F002EFA424FBF582E5F03400F5837E
:08205400ECF0A3EDF00F80CACF
:01205C002261
:10222E0012247F122126E4F545901BE4E493FFE58A
:10223E0045C39F5009AF45120A63054580EB120056
:04224E0009022493CA
:020A63008F46BC
:100A6500C222C22374E72FF582E43400F583E0F94E
:100A7500E47F01FEFDFCA8011205388F4E8E4D8DD9
:100A85004C8C4B75F002E9A424BAF582E5F0341BD1
:100A9500F583E493FE740193FF9000E5E0FCA3E089
:100AA500FD120557E47B64FAF9F812047A8E478F34
:100AB5004874E72546F582E43400F583E075F002D5
:100AC500A424BAF582E5F0341BF583E493FE7401A2
:100AD50093FF9000FFE0FCA3E0FD120557E47B6463
:100AE500FAF9F812047A8E498F4A75F002E546A4A0
:100AF50024FBF582E5F03400F583E0FEA3E0FF7505
:100B0500F002E546A42401F582E5F03401F583E021
:100B1500FCA3E0C39FFFEC9EAB07FA74E72546F5FF
:100B250082E43400F583E0901B9693B40102D2234E
:100B3500901BB9E4936055FD7C00AE47AF481203A6
:100B45008BD3EB9FEE6480F8EA648098403E74EFA7
:100B55002546F582E43400F583E004F074DF25468C
:100B6500F582E43400F583E4F075F002E546A4244B
:100B7500EBF582E5F03400F583E4F0A3F074F52598
:100B850046F582E43400F583E4F0D222C3EB9548C0
:100B9500E5476480F8EA6480985003020CD230235C
:100BA500419000F7E0FEA3E0FF4E7003020C5A757A
:100BB500F002E546A424F1F582E5F03400F583E47E
:100BC50075F00112042875F002E546A424F1F582BA
:100BD500E5F03400F583E0FCA3E0C39FEC9E40758F
:100BE500803C9000F9E0FEA3E0FF4E606875F002DE
:100BF500E546A424F1F582E5F03400F583E475F0CB
:100C05000112042875F002E546A424F1F582E5F009
:100C15003400F583E0FCA3E0C39FEC9E403775F0FC
:100C250002E546A424FBF582E5F03400F583EA8B62
:100C3500F012042874DF2546F582E43400F583E4D8
:100C4500F075F002E546A424F1F582E5F03400F5EF
:100C550083E4F0A3F020225574DF2546F582E434C1
:100C650000F583E004F074DF2546F582E43400F5F1
:100C750083E0FF901BB7E493FEEFC39E402F9001E6
:100C85004AE0FCA3E0FDA3E0FEA3E0454EFFEE45F0
:100C95004DFEED454CFDEC454BFC90014A12054BD4
:100CA50074DF2546F582E43400F583E4F075F0023F
:100CB500E546A424EBF582E5F03400F583E4F0A3E2
:100CC500F074F52546F582E43400020D83D3EB94E8
:100CD50000EA648094805003020D8A9000E9E0FEEA
:100CE500A3E0FF4E605B75F002E546A424EBF582B8
:100CF500E5F03400F583E475F00112042875F0027F
:100D0500E546A424EBF582E5F03400F583E0FCA389
:100D1500E0D39FEC9E402A75F002E546A424FBF53E
:100D250082E5F03400F583EA8BF012042875F002B1
:100D3500E546A424EBF582E5F03400F583E4F0A361
:100D4500F0C3EB954AE5496480F8EA64809840036E
:100D5500020E0C74EF2546F582E43400F583E004B9
:100D6500F075F002E546A424F1F582E5F03400F5CE
:100D750083E4F0A3F074DF2546F582E43400F583BF
:100D8500E4F0020E0C901BB5E493FE740193FF4E44
:100D9500604674F52546F582E43400F583E004F0F9
:100DA50074F52546F582E43400F583E0FDD3EF9D27
:100DB500EE9400502374F52546F582E43400F5835E
:100DC500E4F075F002E546A424FBF582E5F0340075
:100DD500F583EA8BF012042874EF2546F582E43496
:100DE50000F583E004F074DF2546F582E43400F570
:100DF50083E4F075F002E546A424F1F582E5F034CC
:100E050000F583E4F0A3F074EF2546F582E43400A1
:100E1500F583E0FF901BB8E493FEEFC39E40389046
:100E2500014AE0F8A3E0F9A3E0FAA3E0FBAF4EAE78
:100E35004DAD4CAC4B12050CEB5FFFEA5EFEE95D78
:100E4500FDE85CFC90014A12054B74EF2546F582DE
:070E5500E43400F583E4F032
:010E5C002273
:101A6900E4F58090FF0074C1F090FF01F090FF024F
:101A7900F090FF03F090FF04F090FF05F090FF064F
:101A8900F090FF077401F0E4F59090FF0874C1F03D
:101A990090FF09F090FF0AF090FF0B7401F090FF9E
:101AA9000C7461F090FF0DF090FF0EF090FF0F7431
:101AB900C1F0E4F5A090FF1074C1F090FF11F0900F
:101AC900FF12F090FF13F090FF14F090FF15F090C3
:101AD900FF16F090FF17F0E4F5B090FF1C74C1F009
:051AE90090FF1DF0223A
:1022980090FF027401F090FF03F075B4807F141270
:0F22A800000E75B50275B50390FE9B744BF022C6
:03007300021F73F6
:101F7300C0E0C0F0C083C082C0D075D000C000C034
:101F830001C002C003C004C005C006C007121F324F
:101F9300D007D006D005D004D003D002D001D000A2
:0B1FA300D0D0D082D083D0F0D0E0324C
:03000B00020019D7
:0100190032B4
:03001B00021FAE13
:101FAE00C0E0C0F0C083C082C0D075D000C000C0F9
:101FBE0001C002C003C004C005C006C00712232121
:101FCE00D007D006D005D004D003D002D001D00067
:0B1FDE00D0D0D082D083D0F0D0E03211
:0300230002215562
:10215500C0E0C083C082C0D0E59830E0195398FE36
:1021650075600175590074AD255DF582E43400F59F
:0F21750083E599F0055DD0D0D082D083D0E032E1
:1023B100758E1190FE917401F090FEAA74FFF09059
:0623C100FEA474C2F0222C
:0A119300C116C117C118C119C11A15
:101E0700900145E0FF900148E0D39F4008900146CC
:101E17007402F0802BE4900146F0900149E0FEEF58
:101E2700D39E401C900147E0D39400400AE014F091
:101E3700E4900145F08009E4900149F0900148F0F1
:0F1E4700900145E004F0D394FA400374FAF022BE
:10238300900145E0D39F4002E4F0900148EFF0E470
:07239300A3F0900147F022C6
:10230800900145E0D39F4002E4F0900148EDF0A32E
:09231800EFF0EB14900147F022F4
:10119D00062C0000000000000632000000000000D8
:1011AD00062688084828C8A80B393F065B4F666D90
:0511BD007D077F6F00BB
:1018A700752FFF7530FF201F0CE4F52CF52DF52E55
:1018B700F52FF53022AE08AF097C007D0A12039D93
:1018C7008D25AE08AF097C007D0A12039D8F44E485
:1018D700F53874392538F8E6F52C74392FF8E6F51C
:1018E7002D74392525F8E6F52E30202030134FE5E5
:1018F70061B401028021E561B402028025E561B48B
:1019070003028029E56164047034802C30132F9022
:101917000144E0FFB401077530EF752FEF22EFB4F4
:1019270002077530F7752FF722EFB403077530FB01
:0F193700752FFB22EFB404067530BF752FBF224A
:101DB100E52CB53215E52DB53310E52EB5340BE51F
:101DC1002FB53506E5306536603B852C32852D33E0
:101DD100852E34852F358530367F08121EA5AF2C10
:101DE100121EA5AF2D121EA5AF2E121EA5E52F5452
:101DF100FCFF121EA5E53054FEFF121EA57F051241
:061E0100209412239A2236
:022094008F4675
:10209600E4F547E547C39546502543BD157FA01295
:1020A600000E7FA012000E7FA012000E7FA012006D
:0F20B6000E7FA012000E7FA012000E054780D4EF
:0120C50022F8
:1020C600C2AF7F08121EA57FFF121EA57FFF121E3C
:1020D600A57FFF121EA57FFC121EA57FFE121EA560
:1020E6007FFF121EA57F0312209412239AD2AF22DD
:021EA5008F4666
:101EA700E4F547F548C2B47F5412000EE4F547E560
:101EB7004630E006D2B405488002C2B47F5412000F
:101EC7000EE546C313F5460547E547C3940840DFCB
:101ED700E54820E004D2B48002C2B47F5412000E59
:071EE700D2B47F5402000E8B
:10239A0074F0440A4401F5457F18121EA5AF451290
:0723AA001EA57F0302209431
:0A24890090FEA074FFF075BD132251
:1011C20041013100410134004101250041012A0061
:0C11D200410135004101360041013300AD
:10245400C215C20FC212C214C210C211C20EC213DC
:012464002255
:1023C700E490FE80F0F589758CFF758A5A43A80260
:0623D700438810D2AF2282
:1023DD00E490FE80F0F589758DFF758B5A43A80842
:0623ED00438840D2AF223C
:0A000E00E4FEEEC39F50030E80F8DD
:0100180022C5
:0223F300AD0734
:1023F500E4FCECC39D500B7F6412000E43BD150C2D
:0224050080F065
:0124070022B2
:01001A0022C3
:10232100900146E06004B2A48002D2A4900131E0A1
:0923310004F0900134E004F022F4
:10180400900131E0C394084046E4F0D2159000AA58
:10181400E0B401249000ACE004F070069000ABE06A
:1018240004F09000ABE07004A3E06464700A9000DC
:10183400AAF09000ABF0A3F0E560B401120559E5FD
:1018440059C3940640099000AA7401F07559069092
:101854000134E0C39450404AE4F0D20F900125E0F3
:1018640004F0940A403CE4F0D21290012AE004F01F
:101874009405402EE4F0D214B213900135E004F044
:101884009402401EE4F0D210A3E004F0943C401211
:10189400E4F0D211900133E004F0943C4004E4F00D
:0318A400D20E223F
:1011DE00500115000000000000000000000000009B
:1011EE00000000500105000000000000000000009B
:0611FE00000000000000EB
:101AEE00900126E0FCA3E0FDEC900116F0900115AC
:101AFE00EDF0900128E0FCA3E0FDEC900118F090D1
:101B0E000117EDF090012BE0FCA3E0FDEC90011A23
:101B1E00F0900119EDF090012DE0FCA3E0FDEC90AA
:101B2E00011CF090011BEDF090012FE0FCA3E0FDF5
:101B3E00EC90011EF090011DEDF090011F745AF013
:101B4E00900132E0900121F07F007E3C1222767BE4
:0E1B5E00017A0179157D107F007E3C021EEE9B
:10227600D310AF01C3C0D075FDF075FC0F8EFA8F79
:10228600F975FDD275FC2D75FDE175FC1ED0D09259
:02229600AF2275
:10225200D310AF01C3C0D08FFB75FDF075FC0F8C9E
:10226200FA8DF975FDB475FC4B75FDE175FC1ED058
:04227200D092AF2235
:101EEE00D310AF01C3C0D08E458F468D478B488A25
:031EFE0049894AC5
:101F0100E4FEEEC395475024AB48054AE54AAA4989
:101F11007002054914F9120333FF0546E546AC4545
:0C1F21007002054514FD1222520E80D6FD
:051F2D00D0D092AF22AC
:10205D008E458F468B478A488949AF051DEF60260F
:10206D000546E546AE457002054514F5828E83E4BE
:10207D0093FFAB470549E549AA487002054814F995
:07208D00EF12037980D42259
:10174C0090FE927410F07B017A017905FD7F007E8A
:10175C003C12205D90010FE0645A602FE49001264A
:10176C00F0A3F0900128F0A3F090012BF0A37403E8
:10177C00F090012DE4F0A37403F090012FE4F0A39A
:10178C007403F0E4900132F0021AEE900111E09033
:10179C000132F0900106E0FE900105E0FDEDFF90B6
:1017AC000126EEF0A3EFF0900108E0FE900107E0B7
:1017BC00FDEDFF900128EEF0A3EFF090010AE0FEA2
:1017CC00900109E0FDEDFF90012BEEF0A3EFF090FE
:1017DC00010CE0FE90010BE0FDEDFF90012DEEF011
:1017EC00A3EFF090010EE0FE90010DE0FDEDFF90F7
:0817FC00012FEEF0A3EFF02233
:0812040002080000020A0000CC
:10058400D2A6C2A7E4FBE4F5B543B440E5B430E534
:10059400FB53B4DFE5B62519F519E5B73518F51899
:1005A4000BBB0AE2AE18AF197C007D6412039D8E6A
:1005B4000C8F0DE4F518F519C2A6D2A7FBE4F5B526
:1005C40043B440E5B430E5FB53B4DFE5B62519F593
:1005D40019E5B73518F5180BBB0AE2AE18AF197C4C
:1005E400007D6412039D8E0F8F10E4F518F519C277
:1005F400A6C2A7E50E25E02414F582E43400F583B1
:10060400E50CF0A3E50DF0050EE50ED3940A5003B6
:10061400020A62E4F50EFFE4FBC3740A9FFEEBC317
:100624009E506AEB25E02416F582E43400F583E05D
:10063400FCA3E0FDEB25E02414F582E43400F5830B
:10064400E0F8A3E0F5828883D39DE5839C403B8555
:10065400836D85826EEB25E02416F582E43400F583
:1006640083E0FCA3E0FDEB25E02414F582E43400F0
:10067400F583ECF0A3EDF0EB25E02416F582E434E9
:1006840000F583E56DF0A3E56EF00B808C0FEF644D
:100694000970847B02EB25E02414F582E43400F530
:1006A40083E0FEA3E02570F570EE356FF56F0BBBAC
:1006B40009E3E570AE6F7803CEC313CE13D8F9FD0A
:1006C400AC06E4120279E4FBFA79A0783F12016ED9
:1006D4001202B28E1D8F1EC3E51E941EE51D9400EA
:1006E4005009851D1D851E1E020A4CC3E51E942D4E
:1006F400E51D94005011AC1DAD1EE41202797B9AE5
:100704007A9979190207ABC3E51E943CE51D940060
:100714005011AC1DAD1EE41202797BCD7ACC794C1C
:100724000207ABC3E51E944BE51D9400500FAC1DAE
:10073400AD1EE4120279E4FBFA7980806AC3E51EF7
:10074400945AE51D94005010AC1DAD1EE4120279BC
:100754007B9A7A997999804FC3E51E9469E51D9433
:10076400005010AC1DAD1EE41202797B337A33794C
:10077400B38034C3E51E9478E51D94005010AC1D7D
:10078400AD1EE41202797BCD7ACC79CC8019C3E515
:100794001E9487E51D94005013AC1DAD1EE4120297
:1007A400797B667A6679E6783E0208ACC3E51E94E6
:1007B40096E51D94005011AC1DAD1EE4120279E4BF
:1007C400FBFAF9783F0208ACC3E51E94A5E51D9435
:1007D400005013AC1DAD1EE41202797BCD7ACC79A6
:1007E4000C783F0208ACC3E51E94B4E51D94005098
:1007F40013AC1DAD1EE41202797B9A7A99791978AB
:100804003F0208ACC3E51E94C3E51D94005012AC2E
:100814001DAD1EE41202797433FBFAF9783F020825
:10082400ACC3E51E94D2E51D94005012AC1DAD1E60
:10083400E41202797BCD7ACC794C783F806AC3E5A7
:100844001E94E1E51D94005012AC1DAD1EE412028D
:10085400797B9A7A997959783F804DC3E51E94F053
:10086400E51D94005011AC1DAD1EE41202797466AE
:10087400FBFAF9783F8031C3E51E94FAE51D940034
:10088400500BAC1DAD1EE4120279020A13C3E51E1F
:100894009404E51D94015016AC1DAD1EE4120279BA
:1008A4007BCD7ACC798C783F12016E020A13C3E5B2
:1008B4001E940EE51D94015016AC1DAD1EE41202EB
:1008C400797B9A7A997999783F12016E020A13C357
:1008D400E51E9418E51D94015016AC1DAD1EE412DE
:1008E40002797B667A6679A6783F12016E020A1352
:1008F400C3E51E941DE51D94015016AC1DAD1EE408
:100904001202797B337A3379B3783F12016E020A8B
:1009140013C3E51E9422E51D94015015AC1DAD1EB4
:10092400E4120279E4FBFA79C0783F12016E020AFC
:1009340013C3E51E9427E51D94015016AC1DAD1E8E
:10094400E41202797B337A3379D3783F12016E0251
:100954000A13C3E51E942CE51D94015016AC1DAD7D
:100964001EE41202797B667A6679E6783F12016E9C
:10097400020A13C3E51E9431E51D94015015AC1D04
:10098400AD1EE41202797B9A7A9979F9783F1201C3
:100994006E807CC3E51E9436E51D94015015AC1D94
:1009A400AD1EE41202797BCD7ACC790C7840120129
:1009B4006E805CC3E51E943BE51D94015015AC1D8F
:1009C400AD1EE41202797B667A66791678401201CC
:1009D4006E803CC3E51E9440E51D94015014AC1D8B
:1009E400AD1EE4120279E4FBFA7920784012016E1C
:1009F400801DC3E51E9445E51D94015036AC1DAD24
:100A04001EE41202797433FBFAF9784012016EC0C5
:100A140004C005C006C007AC1DAD1EE4120279D0A7
:100A240003D002D001D00012007D1202B28E1D8FBD
:100A34001E8015AE1DAF1E7C007D0312038BEF25B7
:100A44001EF51EEE351DF51DC3E51E94E7E51D9448
:0E0A5400034006751D03751EE7E4F56FF5708F
:010A62002271
:1012C500D281C282E4FB75B50343B440E5B430E591
:1012D500FB53B4DFE5B62519F519E5B73518F5184B
:1012E5000BBB0AE2AE18AF197C007D6412039D8E1C
:1012F5000C8F0DE4F518F519C281D282FB75B50383
:1013050043B440E5B430E5FB53B4DFE5B62519F544
:1013150019E5B73518F5180BBB0AE2AE18AF197CFD
:10132500007D0A12039D8E0F8F10E4F518F519C282
:1013350081C282E51A25E02400F582E43400F583B4
:10134500E50CF0A3E50DF0051AE51AD3940A500350
:10135500021433E4F51AFFE4FBC3740A9FFEEBC3E2
:101365009E506AEB25E02402F582E43400F583E023
:10137500FCA3E0FDEB25E02400F582E43400F583D1
:10138500E0F8A3E0F5828883D39DE5839C403B8507
:101395008371858272EB25E02402F582E43400F541
:1013A50083E0FCA3E0FDEB25E02400F582E43400B6
:1013B500F583ECF0A3EDF0EB25E02402F582E434AF
:1013C50000F583E571F0A3E572F00B808C0FEF64F7
:1013D5000970847B02EB25E02400F582E43400F5F6
:1013E50083E0FEA3E02574F574EE3573F5730BBB4E
:1013F5000AE3E574AE737803CEC313CE13D8F9FDB3
:10140500AC06E41202797BCD7ACC798C783F120157
:101415006E1202B28E1B8F1CC3E51C9463E51B94F0
:0E142500004006751B00751C63E4F573F5743A
:011433002296
:101D490075B48075B5037F1412000E43B440E4FFE7
:101D5900E5B420E5070FEFC3943240F453B4DFE54F
:101D6900B62519F519E5B73518F51853B47FC3E544
:101D7900B694B8E5B7940B50270517E51770020517
:101D890016C394F4E5169401401D7516017517F4F0
:101D9900D208201612D2167B057D327F96022308BF
:071DA900E4F516F517C21660
:011DB0002210
:10120C00016800C10AC10DC10741013F0041014203
:10121C00004101430041014000C181C109026B033F
:07122C00E802690000C18225
:1022EE00D20CE4900141F0C20BC206C205C208D264
:0A22FE0004C203C200900144F02264
:09249C001224541222EE0224085D
:101C63002095207432256CF56CE4356BF56BC3E578
:101C73006C94E8E56B94034024756B03756CE8D2B0
:101C830001801AE56C156C7002156B14D39401E591
:101C93006B94005008756B00756C01C20120941A97
:101CA300056AE56A70020569C39432E569940040E8
:101CB30023756900756A32C20922E56A156A7002E2
:101CC300156914D39401E56994005008756900758A
:051CD3006A01D20922A4
:1021DE0020010F2005097B0A7D327F96122308D23B
:1021EE000522C205200908D20B20020CD20222C2FF
:0921FE000B300204C202D20722D8
:1020F600200628200525200822201F02801D3004E6
:1021060012900141E0D394004005D203D20022C2CE
:10211600048008300B05D203C20022C203C200228B
:101FE900300C0B900141741EF0D204C20C22300A4D
:101FF9000B9001417414F0D204C20A22300D0E3044
:102009000B0B900141740AF0D204C20D2230070A69
:0B201900900141740AF0D204C20722BB
:10243000300304D2918002C291300003D29222C2B2
:022440009222E6
:0F246500300F0BC20F121C63121D491220F622FA
:10220700301223C2120568E568C39402400CE4F556
:1022170068900146E07003121DB11218A71224300E
:07222700121FE91221DE2263
:06000300301402C21422B9
:10235300301014C210900141E0D394004004E01403
:08236300F022E4900141F02298
:1019E000201103021A68C211300B78900142E00402
:1019F000F0C3940A4004E4F0D20D900143E004F0F7
:101A0000C39478400DE4F0D2067B057D327F9612B8
:101A10002308900132E004F0C3940A404BE4F0E064
:101A200004F09406403AE4F0900127E004F07006D8
:101A3000900126E004F0900129E004F07006900186
:101A400028E004F090012CE004F0700690012BE0F7
:101A500004F090012EE004F0700690012DE004F0F7
:091A6000021AEEE4900143F022A9
:10236B00300E14C20E200B0F90013FE004F0C3940B
:08237B00044004E4F0D20A2240
:1022D30043BD1512180412233A1224651222071261
:0B22E30000031223531219E002236BCA
:101233004401370000000042013B000042013D0031
:0312430000C121C6
:10240800E4F565F564F563F562F566D21FF567C214
:052418002075610122A6
:101434008F788E778D768C75900137E0FCA3E0FD74
:10144400A3E0FEA3E0FFAB78AA77A976A875C31240
:10145400052770030214E8E566D3940350030214CD
:10146400E8E47F80FEFDFC900137E0F8A3E0F9A3F7
:10147400E0FAA3E0FB120527701E20211BD22130C5
:1014840020517F141223830561E561C39405400351
:10149400756101E4F567803BE4FF7E08FDFC900183
:1014A40037E0F8A3E0F9A3E0FAA3E0FBC3120527B1
:1014B400702120211E7F14122383D221201F06D2E3
:1014C4001FD20C800E300409E4900141F0C2048064
:1014D40002D20CAF78AE77AD76AC759001371205B9
:1014E4004BC22122E47F80FEFDFCAB78AA77A9766B
:1014F400A875C3120527703890013B75F0011204DA
:1015040028FEC3E5F0942CEE9401402BE490013BBB
:10151400F0A3F07F1420200C122383D221D2207553
:1015240061018013122383D221C220E4F561800774
:10153400E490013BF0A3F0E4FF7E08FDFCAB78AA45
:1015440077A976A875C3120527702890013D75F018
:1015540001120428FEC3E5F0942CEE9401401BE430
:1015640090013DF0A3F0301F117F14122383C21F9A
:0B157400D22122E490013DF0A3F02200
:101246006032007855AA000000000000000000008F
:101256000000000000000000000000000000000088
:101266000000000000000000000000000000000078
:10127600000000000000603200AD00000000000029
:101286000000000000000000000000000000000058
:101296000000000000000000000000000000000048
:1012A60000000000000000000000000001600001D6
:0E12B6005900015D004100AA004200AB00009B
:1021B10090FF127461F090FF1074C1F090FFA07451
:1021C10020F090FFA17422F075CC0675CEFF75CD7D
:0D21D10098759E0275981043A810D2AF2299
:0B2474008F99E59830E1FB5398FD22A2
:0222B700AE0770
:1022B900E4FDEDC39E501274782DF582E43400F5E7
:0922C90083E0FF1224740D80E98A
:0122D20022E9
:10233A00E560B40113E559B4060E7B017A0079AD64
:09234A00AD5D121CD812244222E0
:061CD8008B458A46894796
:101CDE00E4FD7F02AB45AA46A9478F8275830012A9
:101CEE00034C2DFD0FBF0BECAB45AA46A9471203C3
:101CFE00336455704390000112034C64AA703990FE
:101D0E00000212034C24FF922090000312034CF5A4
:101D1E006190000512034C750800F509900006123B
:101D2E00034C24FF921F90000712034C900144F0C5
:0A1D3E007F031223F37F01227F00D0
:011D48002278
:102442007F329000ADE4F0A3DFFCE4F560F559F5CE
:012452005D2C
:012453002266
:101E56009000787455F0A374AAF0A220E433A3F09E
:101E6600A3E561F0A37403F0A374E7F0A21FE433C3
:101E7600A3F0900144E090007FF0E4A3F0A3F0A368
:101E8600F0FF7E0274782EF582E43400F583E02FAD
:0F1E9600FF0EBE0BEF900083EFF07F0C0222B720
:1000760002031EE86480F8E933E83360110460F097
:10008600ED33EC337009E8FCE9FDEAFEEBFF2204F0
:1000960060DED3EB9FEA9EE99DE8C2E78CF0C2F7EB
:1000A60095F0400CE8CCF8E9CDF9EACEFAEBCFFBB7
:1000B6001202E985D0F05804700320D5B3E8047025
:1000C600075002B2D502032892D5EC0460F7E4CCBF
:1000D600C0E0C398F8603B94186008400DD0E0FB80
:1000E600020300E4FBFAC9FC8028E830E406E4C910
:1000F600FBE4CAFCE830E305E4C9CACBFCE85407D4
:100106006010F8C3E913F9EA13FAEB13FBEC13FCDE
:10011600D8F130F52FC3E49CFCEF9BFFEE9AFEED81
:1001260099FDD0E0FBEF4E4D4C701222DB0302032B
:1001360025EC2CFCEF33FFEE33FEED33FDED30E71F
:10014600EB020300EF2BFFEE3AFEED39FDD0E0FBAC
:1001560050130BBB0003020328ED13FDEE13FEEF55
:0801660013FFEC13FC0203007F
:10016E00EC4D6011E8497017ED33EC3304600DE48B
:10017E00FCFFFEFD22E933E8330470F802031E1281
:10018E0002E958046009E4CC248150062850090283
:10019E000328284003020325C0E0EB4A7044B980CF
:1001AE0006D0E0FB020314EF4E701CBD8008EBFF7F
:1001BE00EAFEE9FD80EBE98DF0A4FEE5F0020257C0
:1001CE00E9CDF9EAFEEBFFEF89F0A4FCE5F0CE896C
:1001DE00F0A42EFFE435F0CD89F0A42DFEE435F029
:1001EE008067EF4E7005BD80D780C3EF8BF0A4AC57
:1001FE00F0EE8BF0A42CFCE435F0F8EF8AF0A42C92
:10020E00E5F038FCE433CB8DF0A42CFCE5F03BF8A4
:10021E00EE8AF0A42CFCE5F038F8E433CF89F0A494
:10022E002CFCE5F038CF3400CE89F0A42FFFE5F09A
:10023E003EFEE433C98DF0A42EFEE5F039CD8AF0F2
:10024E00A42FFFE5F03EFEE43DFD33D0E0FB50076A
:10025E000BBB000F020328EC2CFCEF33FFEE33FE3A
:06026E00ED33FD02030068
:1002740075F020800E75F010800575F0087D007E05
:10028400007F003392D530D503120519EC334010AA
:10029400EF33FFEE33FEED33FDEC33FCD5F0ED220E
:0E02A400E5F0247EA2D513CC92E7CDCEFF224A
:1002B200EDD2E7CD33EC3392D524814006E4FFFE44
:1002C200FDFC22FCE4CFCECDCC24E0501174FF80A3
:1002D200EDC3CC13CCCD13CDCE13CECF13CF047040
:0702E200F030D5DE02051922
:1002E900E9D2E7C933E833F892D5EDD2E7CD33EC5B
:0702F90033FC5002B2D522D4
:10030000EC30E7100FBF000C0EBE00080DBD00045E
:100310000BEB6014A2D5EB13FCED92E7FD2274FF0A
:10032000FCFDFEFF22E480F8A2D574FF13FC7D8063
:03033000E480EF77
:10196000021BE9E493A3F8E493A34003F68001F299
:1019700008DFF48029E493A3F85407240CC8C33388
:10198000C4540F4420C8834004F456800146F6DF57
:10199000E4800B0102040810204080901155E47E81
:1019A000019360BCA3FF543F30E509541FFEE4934C
:1019B000A360010ECF54C025E060A840B8E493A313
:1019C000FAE493A3F8E493A3C8C582C8CAC583CA3E
:1019D000F0A3C8C582C8CAC583CADFE9DEE780BEF6
:0112C4000029
:10033300BB010689828A83E0225002E722BBFE02C8
:09034300E32289828A83E49322FB
:10034C00BB010CE58229F582E5833AF583E0225066
:10035C0006E92582F8E622BBFE06E92582F8E222B0
:0D036C00E58229F582E5833AF583E49322CA
:10037900BB010689828A83F0225002F722BBFE0163
:02038900F3225D
:10038B00EF8DF0A4A8F0CF8CF0A428CE8DF0A42E86
:02039B00FE2240
:10039D00BC000BBE0029EF8DF084FFADF022E4CC44
:1003AD00F875F008EF2FFFEE33FEEC33FCEE9DEC0D
:1003BD00984005FCEE9DFE0FD5F0E9E4CEFD22ED53
:1003CD00F8F5F0EE8420D21CFEADF075F008EF2F9D
:1003DD00FFED33FD4007985006D5F0F222C398FD8E
:0503ED000FD5F0EA222B
:1003F200C2D5EC30E709B2D5E4C39DFDE49CFCEE26
:1004020030E715B2D5E4C39FFFE49EFE12039DC3FD
:10041200E49DFDE49CFC800312039D30D507C3E4F8
:060422009FFFE49EFE2294
:10042800C5F0F8A3E028F0C5F0F8E582158270025F
:060438001583E038F022FC
:10043E0075F008758200EF2FFFEE33FECD33CDCC75
:10044E0033CCC58233C5829BED9AEC99E5829840F8
:10045E000CF582EE9BFEED9AFDEC99FC0FD5F0D6D5
:10046E00E4CEFBE4CDFAE4CCF9A88222B800C1B9FF
:10047E000059BA002DEC8BF084CFCECDFCE5F0CB3D
:10048E00F97818EF2FFFEE33FEED33FDEC33FCEB76
:10049E0033FB10D703994004EB99FB0FD8E5E4F931
:1004AE00FA227818EF2FFFEE33FEED33FDEC33FC1E
:1004BE00C933C910D7059BE99A4007EC9BFCE99A12
:1004CE00F90FD8E0E4C9FAE4CCFB2275F010EF2F57
:1004DE00FFEE33FEED33FDCC33CCC833C810D70757
:1004EE009BEC9AE899400AED9BFDEC9AFCE899F892
:0E04FE000FD5F0DAE4CDFBE4CCFAE4C8F92225
:0D050C00CFF4CFCEF4CECDF4CDCCF4CC2284
:0E051900C3E49FFFE49EFEE49DFDE49CFC22F3
:10052700EB9FF5F0EA9E42F0E99D42F0E89C45F02A
:0105370022A1
:10053800E8600FEFC333FFEE33FEED33FDEC33FC21
:03054800D8F122C5
:0C054B00ECF0A3EDF0A3EEF0A3EFF02223
:10055700EC8EF0A4CCC5F0CCCDF8EFA4CEC5F02D31
:10056700FDE43CFCE8A42EC8C5F03DFDE43CFCEFEF
:0D057700A4FFE5F028FEE43DFDE43CFC227D
:00000001FF
